:020000040800F2
:1000000040060020393700086536000867360008CA
:10001000693600086B3600086D36000800000000E5
:100020000000000000000000000000006F36000823
:1000300071360008000000007336000875360008AD
:1000400065370008693700086D3700087137000808
:1000500075370008793700087D37000881370008B8
:1000600085370008893700088D3700089137000868
:1000700095370008993700089D370008A137000818
:10008000A5370008A9370008AD370008B1370008C8
:10009000B5370008B9370008BD370008C137000878
:1000A00000000000C5370008C9370008CD37000838
:1000B000D1370008D5370008D9370008DD370008E8
:1000C000E1370008E5370008E9370008ED37000898
:1000D000F137000879360008F53700087F36000848
:1000E000F9370008FD370008013800080538000816
:1000F00009380008000000000D3800081138000819
:100100000000000000000000153800081938000841
:100110001D380008213800082538000800000000BC
:10012000293800082DE9F14FB0B0924604910DF145
:1001300042013A9A2B9199464A7000200AE01AF837
:10014000011B0498309A90470028049000F0B6866E
:100150000D98401C0D909AF8000050B12528EED162
:10016000002100220791089209910A920B910C92AA
:1001700004E00D9800F0A4BE41F001011AF8010F4F
:100180002028F9D023280CD02B2804D02D2805D0E6
:10019000302809D00BE041F00201EFE741F0040103
:1001A000ECE741F00801E9E741F01001E6E72A2811
:1001B0000FD1D9F8002052F8040BC9F8002000280C
:1001C0000F9003D540420F9041F004010AF1010A5B
:1001D00014E00F92DFF828380AE00F98984205DA09
:1001E00000EB800402EB4402303A0F920AF1010A5C
:1001F0009AF80020A2F130000A28EED39AF8000005
:100200002E2803D04FF0FF320E9229E01AF8010F8A
:100210002A2809D1D9F8000050F8042BC9F80000A9
:100220000E920AF1010A1BE02D280CBF0AF1010A07
:10023000002000220E92DFF8C8470BE040B90E9A6A
:10024000A24205DA02EB820503EB4503303B0E9335
:100250000AF1010A9AF80030A3F130020A2AEDD31C
:10026000ADF84010DFF89C07784400F5F3609AF889
:10027000001000F057FF08B11AF8010B8DF842008A
:100280009DF84200682805D19AF8000068280CD132
:10029000622106E06C2804BF9AF800006C2804D1A3
:1002A00071218DF842100AF1010A12A806901AF87D
:1002B00001BBBBF125012CD01C3900F0D081091FF6
:1002C000022940F2CC81133900F02385093900F06E
:1002D000C681891E00F0B885491E00F06585491E5B
:1002E000022940F2BC81091F00F05E85491F00F021
:1002F0002881491E00F00D85491E00F0D080C91EDE
:100300000DD0891E00F00585C91E00F0028500F0A1
:10031000A6BD25238DF84830012100F0ABBDD9F8EA
:10032000000050F8044BC9F80000002C059440F080
:10033000A3802B994878002800F099804FF0FF3473
:100340000FF6843000F0FEFE201A40F0B78500F072
:1003500092BD6D1E40F0A9853096079D12AF75B114
:10036000309E17F8012B02A9304600F073FE0028DA
:1003700001D46D1EF5D10028309640F09F850A9D6E
:100380003020002D8DF804000CDD309E012301AAE1
:1003900002A9304600F06EFE002840F08F856D1EE9
:1003A000F4D13096059F089D75B1309E17F8012B4A
:1003B00002A9304600F04EFE002801D46D1EF5D192
:1003C0000028309640F07A850B9D3020002D8DF866
:1003D00004000CDD309E012301AA02A9304600F082
:1003E00049FE002840F06A856D1EF4D130960598CC
:1003F0000899099D471875B1309E17F8012B02A97D
:10040000304600F027FE002801D46D1EF5D10028EB
:10041000309640F053850C9D3020002D8DF804005F
:100420000CDD309E012301AA02A9304600F022FE15
:10043000002840F043856D1EF4D130969DF84000B1
:1004400041077FF588AE2020002C8DF804007FF74F
:1004500082AE309D012301AA02A9284600F00AFEBF
:10046000002840F02B85641EF4D1309573E60FF61A
:100470006440059000F0FFBC0E9D002D04D5204681
:1004800000F080FE044607E02A46204600F084FE85
:10049000002814BF041B2C46089400F0ECBCD9F8CB
:1004A000001051F8040BC9F8001020F000040021DE
:1004B00021F0FF3512ABCDE902450593DDE90223BA
:1004C00006993C2413B90AB90E9898B102F00F05A9
:1004D0003035641EEEB23A2EA8BF2735120942EA23
:1004E00003721B090D5508BF002A03D005980D198A
:1004F000A842EBD308190590C4F13C020E9808926B
:1005000082420ADABDF84010821A4FF6EF700140BD
:100510000A92ADF8401000F0AEBC002840F1AB8468
:100520009DF8400000F01400102840F0A4840F9BB8
:1005300007990A985B1A1B1A9A1A002A40F39B849F
:10054000E5E32B99487820B14FF0FF340FF6543093
:10055000F8E69DF84200622861D0682817D06A2822
:100560003FD06C2806D0712847D074282CD07A2828
:100570001DD064E0D9F8001051F8040BC9F8001040
:10058000002868D14FF0FF340FF63030DAE6D9F8A2
:10059000001051F8040BC9F8001020B94FF0FF34D7
:1005A0000FF61830CEE60D99018000F064BCD9F842
:1005B000001051F8040BC9F8001000284BD14FF07F
:1005C000FF340FF6F820BDE6D9F8001051F8040BFF
:1005D000C9F8001000283ED14FF0FF340FF6DC20A0
:1005E000B0E6D9F8001051F8040BC9F8001080B932
:1005F0004FF0FF340FF6C420A4E6D9F8001051F8EC
:10060000040BC9F8001020B94FF0FF340FF6AC20EE
:1006100098E60D9AD317C0E9002300F02CBCD9F856
:10062000001051F8040BC9F8001020B94FF0FF3446
:100630000FF6882086E60D99017000F01CBCD9F8F1
:10064000001051F8040BC9F8001020B94FF0FF3426
:100650000FF6682076E60D99016000F00CBCD9F821
:100660000020D21D22F00702C9F80020D2E90001C3
:100670000832C9F80020CDE90201C80F02D007985E
:100680002D210AE0BDF84000810702D507982B21F3
:1006900003E0C00705D50798202112AA1154401C79
:1006A0000790DDE90223079912A8CDE92C2308441D
:1006B0004BF020016129059021AC0BD00E99002947
:1006C00002D506210E9105E001BF4BF020016729FC
:1006D00001220E92DDE9022359004915491C0DD172
:1006E0001A030BD0ABF1610503211A2D089102D238
:1006F0000FF6E41110E00FF6E4110DE05900491572
:10070000491C0DD11A030BD1ABF1610503211A2D40
:10071000089119D30FF6CC11032200F069FDAAE36A
:10072000DDE90201CDE92E01DDE92E2323F00047AA
:10073000B7F5801F22F000060DD20022002F08BF5F
:10074000002E009203D116E00FF69411E4E76A46FA
:1007500000F0A2FD0FE0DFF8DC08DFF8DC1800EBAA
:1007600017500090DDE92E234FF0FF301940DFF8DD
:10077000CC7810403943CDE902014BF020006128CC
:100780000DD1059830210170821CBBF1610F0592DB
:100790000CBF7821582141700798801C0790DDE933
:1007A000020120F0000231F0004308BF002A02D10C
:1007B0000026002568E14BF02008B8F1610F40F0F9
:1007C000B4800E98002847BF21210191401C019060
:1007D000019FDDE92C017F1C00220023DDE9024599
:1007E00000F092FD00998DF8842038BF85F0004517
:1007F000091F002F00910DF1850653DD2046294683
:100800000022002300F098FD4CD24800400D00F17A
:100810001C0212D0002A10DD40F2FF739A4206DB60
:10082000DFF81C1805F000400143002011E06FF3D1
:100830001E5141EA025120460BE024F0000035F041
:10084000004108BF00280FBF29461C22294600F09E
:100850008BFD04460D4600F025FEFF1F002F80464D
:1008600009DD00F03DFE02460B462046294600F019
:1008700049FE04460D46F01D0721B8F1000F0CDDBE
:10088000491E5EBF08F00F0200F8012D4FEA28183C
:10089000F3D502E0002200F8012D491EFAD5C61D4D
:1008A000002FABDC0DF18500361A01988642D8BFC7
:1008B000304600280DF1850430D4B04206DA0DF13F
:1008C00085010A5C082AA8BF0F2100DA0021024630
:1008D00021AB134400E0401E13F80159521E8D4213
:1008E000F9D00F2904D10DF185018B5C5B1C8B5471
:1008F000002A04D50099091D21AC401C0091411E1D
:100900000CD46218ABF13A0613783033DDB23A2DCD
:10091000A8BFF318491E02F80139F5D50E99002930
:1009200040F1B080421E0E92ACE00099DFF814272F
:1009300047F29750414391FBF2F2DDE92C450092DA
:1009400025F00045D2F1070204DD2046294600F0DB
:100950004EFB0BE052420020DFF8EC1600F047FBA4
:1009600002460B462046294600F03EFE0446B8F1FA
:10097000660F0E9806BF009F0A3706273F18142FF0
:10098000C8BF142730200D468DF884000DF1850670
:10099000002F39DD2046294600F04AFF01460A466D
:1009A00006F1080304200A26B2FBF6F606EB860ED3
:1009B000A2EB4E02303203F8012C0A22B6FBF2F20F
:1009C00002EB820EA6EB4E063036401E03F8026D97
:1009D000E9D1083F002F03F10806D9DD084600F0F1
:1009E0003BFF02460B462046294600F08BFD0022C5
:1009F000DFF8583600F03EFF04460D46CAE700BF58
:100A0000CBCCCC0C582D00000DF18500361A0DF121
:100A1000850404E00098401E761E0090641C207837
:100A20003028F7D0B8F1660F02D10099491C04E0D4
:100A3000B8F1650F0CBF012100210E9808188642FD
:100A4000B8BF701E00281DD4B04204DA215C3429DE
:100A5000C8BF392100DC30210246631E9D1800E02A
:100A6000401E15F80169521E8E42F9D0392902D173
:100A7000A15C491CA154002A04D50099491C1C46BC
:100A8000401C00910646009D00F0C6FF406A0778B2
:100A9000DDF8388030B2002802DC01260FF248640D
:100AA0004BF02000662808BF6D1C16D0672846D181
:100AB00028B210F1040F48DB404546DA9DF84000AB
:100AC0006D1C010703D430B24045B8BF804628B240
:100AD000B8EB000848BF4FF000080FFA85FBBBF1E8
:100AE000000F00F3B5800898411C08913022059949
:100AF0000A54B8F1000F03DC9DF84000010704D54B
:100B00000898411C089105990F5418EB0B0FB8BFBA
:100B1000C8F100052DB268420B90A84432B290454E
:100B2000B8BF4646059B089836B20996324621461C
:100B3000184400F05DFBA8EB06000C90D2E0BBF17E
:100B4000610F17D14FF0700B19E030B2404504DA55
:100B50009DF840100A0758BF8046B8F1010848BF09
:100B60004FF00008BBF1670F14BF4FF0450B4FF07B
:100B7000650B04E0BBF1410F08BF4FF0500B089824
:100B8000411C0891B8F1000F059914F8012B0A5483
:100B900003DC9DF8400001071AD50898411C089114
:100BA000B8F1000F05990F5412DD761E30B2804562
:100BB0000598089BB8BF464632B22146184400F05B
:100BC00017FB089936B271180891A8EB06000B9034
:100BD00005980899084429B2002980F800B003D488
:100BE0002B224270821C04E02D2242700D46821C92
:100BF0006D4200212CAB28460AE004460A2094FBF3
:100C0000F0F000EB8005A4EB450403F8014B491C10
:100C100000B20028F1DC012906DC4BF02000652839
:100C200004BF302002F8010B00292CAB08D1302082
:100C300002F8010B06E0491E585C303002F8010B47
:100C40000029F8DC059908980844121A099249E02D
:100C500030B229B288421CDA0598089B32B221468C
:100C6000184400F0C5FA089936B27118ABEB0606C5
:100C7000B8F1000F08910B9603DC9DF840000207C5
:100C800004D5059847540999491C0991CDF830803D
:100C900028E00598089B2AB22146184400F0A8FADB
:100CA0000898761B5844B8F1000F089003DC9DF8B3
:100CB00040100A0703D5411C089105990F5430B222
:100CC00080450598089BB8BF464632B204EB0B013D
:100CD000184400F08DFA089836B230180890A8EB46
:100CE00006000B909DF8400000F01400102840F022
:100CF000C280079A08990B988A18099982180C984B
:100D00008A1882180F98824280F2B580821A0A925D
:100D1000B1E09DF84200622808D068280ED06A2809
:100D200014D06C281FD0712810D01CE0D9F8001006
:100D300051F8040BC9F80010C0B21AE0D9F800103D
:100D400051F8040BC9F8001080B212E0D9F8002065
:100D5000D21D22F00702C9F80020D2E900010832B2
:100D6000C9F8002006E0D9F8001051F8040BC9F8C2
:100D700000100021CDE902019DF8400001075AD57D
:100D8000DDE90223002B08BF002A54D04BF02000DD
:100D9000782850D1079812A930220A54401C431CCD
:100DA000079301F800B046E09DF84200622808D0A1
:100DB00068280ED06A2814D06C281FD0712810D053
:100DC0001CE0D9F8001051F8040BC9F8001040B22B
:100DD0001AE0D9F8001051F8040BC9F8001000B25D
:100DE00012E0D9F80020D21D22F00702C9F8002035
:100DF000D2E900010832C9F8002006E0D9F8001055
:100E000051F8040BC9F80010C117CDE902010029FF
:100E100002D507982D210AE0BDF84000810702D5D0
:100E200007982B2103E0C00705D50798202112AAB7
:100E30001154401C079012A807990144059102A87B
:100E4000594600F04FF816E001200790D9F800004D
:100E500050F8041BC9F800008DF848100BE025215C
:100E60000122BBF1000F8DF84810079203D08DF8D6
:100E700049B0022107910F9A07980A990C9C121AFF
:100E80000898521A0B99121A0998521A121A9DF8B8
:100E90004000141B41073FF560AA2020002C8DF86C
:100EA00004007FF75AAA309E2546012301AA02A911
:100EB000304600F0DFF800283FF44BAA4FF0FF3037
:100EC00031B0BDE8F08F00007072696E74665F73B8
:100ED0003A2062616420257320617267756D656ECA
:100EE000740000002DE9FC4307466F293E6908BFE6
:100EF000082405D041F02000782814BF0A241024CB
:100F00003C25D7E90023642918BF692990469946F2
:100F100005D1002B03D5D8F1000869EB4909B9F1D7
:100F2000000F08BFB8F1000F0CD1386B50B9082C76
:100F300039D197F83800010735D530203B2586F8A0
:100F40003B0030E08DF80010404649462246E3174A
:100F500000F066FD3032D0B26D1E3A28019504DBF8
:100F60009DF80000A0F151018A187255404649468B
:100F70002246E31700F054FD80465FEA010908BFEE
:100F8000B8F1000F03D0F86871198842DCD3082C3F
:100F900009D197F83800010705D5705D302802D0D7
:100FA0006D1E30207055C5F13C02BA617119F960AF
:100FB000386B824208DA821A3A624FF6EF70398F44
:100FC00001403987BDE8F38300280ED597F8380033
:100FD00000F01400102808D17B6B7969386A5B1A1D
:100FE0001B1A9A1A002AC8BF3A62BDE8F3832DE99A
:100FF000D04306460F4614464FF00008DFF85090E5
:1010000012E0E00707D542464B463046394600F02D
:1010100031FC06460F464046494642464B4600F0E4
:1010200029FC641080468946002CEAD130463946B6
:10103000BDE8D08302FCFFFFFFFF0F800000E03F10
:101040000000F07FA08601000000F03F84D79741A8
:101050000000244010B503460C461146A06898478E
:10106000A06020B1E06A401CE062002010BD4FF09B
:10107000FF3010BDF8B505460E4617461C46002049
:101080005CB117F8011BB068A847B06030B1F06AD6
:10109000401CF0620020641EF3D1F2BD4FF0FF301F
:1010A000F2BD00007072696E74665F733A20256E3F
:1010B00020646973616C6C6F776564007072696E2F
:1010C00074663A2062616420256E20617267756DD6
:1010D000656E7400000000006E616E004E414E00AF
:1010E000696E6600494E4600300030B4002513E0BA
:1010F00050F8042BD30744BFA9F101039A18091F24
:10110000042942F8045BFAD213468C0744BF1580C9
:101110009B1CC90748BF1D7050F8041B0029E7D16C
:1011200030BC7047C9B202788A421AB11CBF10F8AD
:10113000012FF9E718BF002070470268531C0360B5
:101140001170704780B500B906A005490B681BB146
:1011500022220021984701E000F0E5FC222002BD98
:1011600038020020636F6E73747261696E74206858
:10117000616E646C65723A20626164206D657373A0
:101180006167650000F1010310F8011B11B110F84F
:10119000011BFBE7C01A7047C9B2830706D0521E75
:1011A00022D310F8013B9942F7D11FE0083A13D33C
:1011B00002F1040241EA012141EA014150F8043BF5
:1011C000121F21BF4B40A3F1013C2CEA030C1CF081
:1011D000803FF3D0C9B2001F083210F8013B521E05
:1011E00028BF91EA030FF8D818BF0120401E7047AE
:1011F00062B38B0708D0521E11F8013B00F8013B87
:1012000000F024808B07F6D1830740F0208000BFD8
:10121000103A07D330B4B1E83810103AA0E83810CB
:10122000F9D230BC530724BFB1E80810A0E8081079
:1012300044BF51F8043B40F8043BD20724BF31F8C7
:10124000022B20F8022B44BF0B7803707047121F4B
:1012500017D35B0009D151F8043B20F8023B1B0C6B
:10126000121F20F8023BF6D20BE051F8043B00F8C5
:10127000013B1B0A20F8023B1B0C121F00F8013B2C
:10128000F3D238BF121D521E24BF11F8013B00F8E3
:10129000013BF8D870472E0010B5144600F002F854
:1012A000226010BDC1F30A5343B14A0012F5001F7A
:1012B00028D2A3F2FE32A1EB0251704750EA410C52
:1012C00020D001F0004C31EA0C01B1FA81F204BFE8
:1012D000B0FA80F3D2180B3AB2F120032CBF00FA17
:1012E00003F1914041EA0C013EBFC2F1200C20FA0B
:1012F0000CF319439040524240F2FD33D21A01EBF5
:1013000003517047002270474FF4001C1CEB410F43
:1013100094BF1CEB430F09E041EA030C50EA4C0C6C
:1013200052EA0C0C03D2994208BF9042704714BF96
:101330008B428242704700004FF4001C1CEB410FAF
:1013400094BF1CEB430F09E041EA030C50EA4C0C3C
:1013500052EA0C0C03D28B4208BF8242704714BF82
:101360009942904270470000124254D440F2FF7CF0
:101370001CEA11530FD0634531D09B1863453CBF25
:1013800001EB0251704701F0004141EA0C5100208D
:10139000AFF30080704750EA410320D001F0004CC9
:1013A00091EA0C011CD0B1FA81F30B3B9A420DD9A2
:1013B000D21A994051EA0C01C3F1200C20FA0CFC1E
:1013C00061449840531C40F2FF7CD7E7914041EACA
:1013D0000C01C2F1200C20FA0CF319439040704725
:1013E000B0FA80F31533202BE0D3202AEED3203A35
:1013F000203B9A4209D9D21A00FA03F141EA0C01C2
:101400000020531C40F2FF7CB8E700FA02F141EAE9
:101410000C0100207047524240F2FF7C1CEA11533D
:101420000DD06345DBD0B2EB030C3CBFA1EB025106
:1014300070470CF1010221EA035141F4801150EA96
:10144000410CCCD001F0004C352A27DC30B481EAC5
:101450000C01B2F1200309DAC2F12003044601FABB
:1014600003F5D0402843D1409C400CE0C3F120025A
:10147000450020FA03F418BF44F0010421FA03F0F8
:1014800091400C43002174F1004550F1000051EBF4
:101490000C01244230BC7FF47BAF704761460020D2
:1014A00076E70000C1F30A5340F2FE329B1A14DDC6
:1014B000D3F120034FEAE17208DDC90241EA50513D
:1014C00041F00040D84080185040704703F2E130AE
:1014D00010B1D24382F000407047002070470000F6
:1014E000C11768B14840401AB0FA80F29040D21C4F
:1014F000C907C2F5846241EA025202EBD0214005DD
:101500007047000070B44FF0004591EA030F40F1BE
:101510000D836B40841A71EB030603D2001BB141AB
:10152000121973414FF4001C1CEB410F34BF7CEBCC
:10153000430442E00C0DA4EB1356352E4FDC45EA74
:10154000C323DB0A45EAC121C912B6F120050DDD2E
:1015500063FA05F6EB4086EA0305124218BF45F030
:101560000105C01851F100010CD213E062FA06F532
:10157000F2405540F3415A40B340F3405A4080187E
:10158000594107D349085FEA30005FEA350528BFB3
:1015900045F0010501F58011420875F1004250F156
:1015A000000041EB04514E0016F5001F70BC38BF1F
:1015B00070470020090D090570471CEB410F10D240
:1015C00052EA43060BD0BCEB410F05D80C0DAB43E0
:1015D000661E342EB6DD02E0AB438018594170BC64
:1015E000704770BC70470000F0B540F2FF7581EAAB
:1015F000030C0CF0004C15EA11541DBF15EA1357EB
:10160000AC42AF42E5E0BC41C1F31301C3F31303A5
:10161000801A994143F4801304D2641E400049416A
:1016200080185941C90241EA5051B1FBF3F603FB5E
:101630001611A2FB0675D7EBC020A94102D2761E77
:1016400080185941C90241EA5051B1FBF3FE03FB36
:101650001E11A2FB0E75D7EBC020A94103D2AEF13B
:10166000010E80185941890241EA9051760546EAF7
:101670008E2EB1FBF3F603FB1611A2FB0675D7EB1A
:101680008020A94102D2761E80185941C90241EA40
:1016900050514EEA060EB1FBF3F603FB1611A2FB06
:1016A0000675D7EBC020A94102D2761E8018594199
:1016B000C90241EA5051B1FBF3F703FB1711A2FB3A
:1016C0000735D3EBC020A94167F100070CBF0042EA
:1016D00047F0010766F3D5274FEA1E31B80814F525
:1016E000806412DDBD0775F1004250EB0E5051EBE6
:1016F000045111F5801F5CBF41EA0C01F0BD4CF0B4
:101700007F6141F0E0410020F0BDBD076D0840EA77
:101710000E5041F48011D4F10104B4F120060ADA2C
:10172000C4F120060200E04001FA06F3E14018434C
:10173000B24015430EE0342C13DCC6F1200445EA18
:1017400040056D0820FA06F2154321FA06F0A14083
:101750000D43002175F1004250F1000051EB0C01E6
:10176000F0BD00205FEA0C01F0BDCFB992185B41DB
:10177000B3FA83F704BFB2FA82F6BF190B3FB7F191
:1017800020062FBF02FA06F3BB40C7F1200622FA5B
:1017900006F638BF3343BA401CB1E419641E33E780
:1017A0007F4231F00041B1FA81F404BFB0FA80F613
:1017B000A4190B3CB4F120062FBF00FA06F1A1409A
:1017C000C4F1200620FA06F638BF3143A0403C1B86
:1017D0001AE7AC421ABF05EA1357AF4212E050EACB
:1017E00041061CBF52EA4306BFE750EA41073046B4
:1017F00061461CBF41EA0551F0BD52EA430C08BFE7
:10180000C143F0BD00204FF4001616EB410F98BF06
:1018100016EB430F08BF16EB410F24BFC14305E091
:1018200016EB430F0CBF61464CEA0551F0BD0000BA
:10183000400D491840EA81200CD2490DA1F5806184
:10184000491C40F0004005DBD1F11F0154BFC840E6
:10185000C017704700207047014648B1B0FA80F1C8
:101860008840C91CC1F58461090501EBD021400500
:1018700070470000B0B581EA030C0CF0004C40F258
:10188000FF7515EA11541DBF15EA1357AC42AF425C
:1018900039E0E41923EA455343F48013C90241F0C7
:1018A000004141EA505EC7021100A7FB0202002876
:1018B0004FF00000EEFB01204FF00001E3FB072199
:1018C00018BF42F00102401800214941E3FB0E011C
:1018D000A4F580640F0302D252004041494154F103
:1018E00001046CDD470872F1004250F1000051EB39
:1018F0000451A1F580115CBF41EA0C01B0BD4CEA76
:1019000005510020B0BD05EA1357AC4214BFAF42E9
:1019100041E050EA410E1CBF52EA430E02E061462C
:101920000020B0BD24423C441BD15FEA070EF6D034
:10193000090302BF01460020AEF1140EB1FA81F78F
:10194000AEEB070401FA07FE0C37C7F1200100FADD
:1019500007F7C8404EEA000E23EA455343F48013CC
:10196000A2E733F00043B3FA83F704BFB2FA82FE72
:1019700077440B3FE41BB7F1200E2FBF02FA0EF3A2
:10198000BB40C7F1200E22FA0EFE38BF43EA0E0319
:10199000BA40641C82E750EA410E14BF52EA430E7B
:1019A0006FF000014FF4001717EB430F8ABF194681
:1019B00017EB410FB5E74CEA05510020B0BDD4F15B
:1019C0000104B4F120070FDAC4F12007520828BF40
:1019D00042F0010210FA07F501FA07F7E1BF2A43C6
:1019E000E0403843E1400FE0352C98DCC7F120049B
:1019F00052EA400220FA07F218BF42F0010231FA1F
:101A000007F0A1400A43002172F1004250F10000AA
:101A100051EB0C01B0BD000000487047F8000020F9
:101A2000D3BBD9B1B2F5803F5BD2022A1ED98C4616
:101A3000B1FBF2F102FB11C31B0443EA1043B3FBF9
:101A4000F2FC02FB1C3380B240EA0343B3FBF2F02A
:101A500002FB103240EA0C4000237047022A05D9ED
:101A60008446B0FBF2F002FB10C270474AB105D1C8
:101A700000F0010249085FEA3000704700220023AD
:101A8000704700F009B90B000200002100207047E8
:101A9000F7D3002200237047904271EB030CF2D37E
:101AA00070B5B1FA81F4B3FA83F52C1BA340C4F1ED
:101AB000200532FA05F63343A2405FF00046E640C7
:101AC00002E05B085FEA3202841A71EB030524BF6F
:101AD000204629467641F4D302000B003000002155
:101AE00070BD70B5B1FA81F4B2FA82F5C4F1200488
:101AF0006419B4F12006DAD3B2405FF00044F44038
:101B0000002502E052085FEA3303C61A71EB020EA9
:101B100024BF3046714664416D41F3D302000B008F
:101B20002000290070BD012000F0B8B8841A71EBC4
:101B3000030604D26E40001BB141121973414FF4E9
:101B4000001C1CEB410F34BF7CEB430683E00C0D03
:101B5000A4EB1356362E00F37C80012E45EAC323F6
:101B600041DC43EA525312BFD20292025B082405C1
:101B700045EAC12141EA5051D2EBC020994125D418
:101B800007D1B0FA80F610FA06F162D000202036B4
:101B900008E0B1FA81F6B140C6F1200220FA02F263
:101BA0001143B0404FEAF474B4EB465434F00106EC
:101BB0004FEA74040AD8D6F50016760D04F00044F6
:101BC000F04061FA06F25040F1404840C00A40EA55
:101BD000415021F0004128BF5FEA500550F100005C
:101BE00044EBD12135E0DB0A45EAC121C90AB6F14F
:101BF00020050EDD42EA0242120CC5F1200603FA6E
:101C000006F6EB4042EA06056D42984161F100019B
:101C10000DE062FA06F5F240554063FA06FC82EAEE
:101C20000C02F3405A406D42904161EB030111F404
:101C3000801F05D1641E620502D06D0040414941FC
:101C400021F48011430875F1004350F1000041EB8D
:101C5000045170BC70471CEB410F15D223F00043B8
:101C600052EA43060BD04FEA4C0CBCEB410F04D8B0
:101C70000C0D661E342EB7DDEBE7801A994150EA51
:101C8000410608BF0021E4E708BF1CEB430F28BF53
:101C90006FF00001DDE700007047000080B5AFF392
:101CA0000080024A11001820ABBEFBE726000200AC
:101CB00038B5040001D1012032BD00F019F808B98F
:101CC00000F01AF800F01DF800F025F8FFE7416178
:101CD00000F001F832BD2068C16841F40051C160D4
:101CE0000020686020216970A9700021616370473D
:101CF00004F140056878704700212970204600F003
:101D000064BB242068702068C16821F40051C16060
:101D1000204600F0DABA2068016921F4904101619F
:101D20002068416921F02A0170472DE9FC410646EF
:101D30000D4696F84100202814461F463FD10DB1AC
:101D4000200001D101203BE000207064212186F8B1
:101D5000411000F0A5FBB4848046F48400F032F812
:101D600004BF306900281ABF2C46002500240CE06F
:101D70003068002C12BF14F8011B35F8021BC1F3A8
:101D800008014160F08C411EF1844346F08C0097BD
:101D9000002807D000228021304600F09DF900285D
:101DA000E6D005E000224021304600F095F908B168
:101DB000032005E0202086F84100002000E00220FA
:101DC000BDE8F681B068B0F5805F704710B500F1EE
:101DD00030039C7C202C0AD109B1140001D10120D0
:101DE00010BD00241C60BDE8104000F0BFB9022007
:101DF00010BD13680093526800927047216801F18A
:101E0000140252E8001F206800F1140321F0400181
:101E100043E80010002870477CB5044621680B6831
:101E2000CD684A6913F00F0007D1980661D5AA065C
:101E30005FD52046BDE87640E2E1D00702D415F434
:101E4000907F56D0D80705D5E90503D5606C40F0E2
:101E500001006064580705D5D10703D5606C40F0D8
:101E600002006064980705D5D10703D5606C40F087
:101E700004006064180707D5A90601D4D00703D56C
:101E8000616C41F008016164606C002830D09806F4
:101E900004D5A90644BF204600F0B2F92068406985
:101EA000616C0A0701D440061DD5204600F081F977
:101EB00020684169480611D5FFF7A0FFFCD1E06B0F
:101EC00060B10FF231314163E06B00F011FB00288B
:101ED0000ED0E06B416BBDE87C4008472046BDE872
:101EE000764000F032BB204600F02FFB00206064FB
:101EF00073BD206B012804F1410240F08C80D806AC
:101F000000D5EE0640F18780002300930D68009510
:101F10004B68009300984969480640D5E16B086812
:101F2000406880B20028E3D0A38D9842E0DAE085D3
:101F3000886920282DD0216801F10C0050E8001F8D
:101F4000236803F10C0521F4807145E80010002896
:101F5000F1D100F09CF8490800F11405490045E86A
:101F600000100028F5D100F092F800F1140521F0DE
:101F7000400145E800100028F5D1202050700021D4
:101F8000216300F08AF800F0DDF8FAD1E06B00F090
:101F90008DFA02206063A18DE08D091A35E0A08DD5
:101FA000E18D411AE08D00281CBF88B200286DD059
:101FB000206800F10C0353E8003F00F10C0623F405
:101FC000907346E800300028F2D1206800F1140335
:101FD00053E8003F5B0800F114065B0046E8003060
:101FE0000028F2D12020507000222263206800F1E6
:101FF0000C0252E8002F00F10C0522F0100245E817
:1020000000200028F2D1022060632046BDE87C4019
:1020100089B200F09BBA180629D52E0627D510786C
:10202000212833D1A068B0F5805F04BF2069002863
:1020300008D1206A0288C2F308024A60206A811C23
:10204000216204E0206A421C226200784860E08C31
:10205000401EE08480B2C8B92068C16821F08001C8
:10206000C1602068C16841F04001C16073BD58067D
:102070000CD56B060AD5C86820F04000C860202146
:1020800011702046BDE8764000F061BA73BD20684B
:1020900000F1140151E8001F7047206800F10C01A5
:1020A00051E8001F00F10C037047026802F10C01B7
:1020B00051E8002F036803F10C047047016801F137
:1020C000140252E8002F520801F11404520044E8AF
:1020D00000210029F2D170472DE9F041069C054608
:1020E0000E4690461F46286801683140B1420CBF39
:1020F0000120002040451AD114F1010FF3D024B182
:1021000000F0CEF9C01B8442EDD200F013F821F4A8
:10211000D07100F019F8F8D100F01AF805F140007C
:1021200020214170817000210170032000E0002017
:10213000BDE8F081286800F10C0151E8001F00F1B2
:102140000C03704721F0100143E80010002870478D
:10215000286800F1140151E8001F490800F1140338
:10216000490043E800100028F2D17047816282855F
:10217000C28500214164222280F84220016921B1F8
:102180000168CA6842F48072CA6001684A6942F014
:1021900001024A610068C16841F02001C16000206D
:1021A0007047016801F10C0252E8002F01F10C04A4
:1021B000704710B5FFF7F5FF22F4907200F015F8A4
:1021C000F8D1FFF77BFF016B012906D1FFF76DFF07
:1021D00022F0100200F009F8F8D1202180F8421016
:1021E0000022026310BD22F4807244E8002100291D
:1021F00070470000406A0021C185C18400F0A5B984
:102200001CB590F8421022294FD18168826AB1F53D
:10221000805F0AD1016969B903685968C1F308018F
:102220001180826A911C81620FE0002904BF01695C
:10223000002902D10368596803E00168496801F088
:102240007F011170816A4A1C8262C18D491EC1855D
:1022500089B241BB0168CA6822F02002CA600168E5
:10226000CA6822F48072CA6001684A695208520042
:102270004A61202180F8421000224263016B01294B
:102280000FD1026300F013F802681168CB0604D581
:1022900000240094FFF7ADFD0099818D00F056F900
:1022A00001E000F064F9002016BD022016BD0168AF
:1022B00001F10C0252E8002F01F10C0422F010028F
:1022C00044E800210029F2D1704710B50446226885
:1022D0001169E06821F4405101431161D36822483B
:1022E000A168034020690B4361690343E0690B4324
:1022F0000343D3605169A06921F4407101435161E6
:102300001A498A4202D100F01EFC01E000F013FCE1
:1023100063682268E469192148436421B4F5004FD9
:102320000FD15B0000F024F8C90032316420B1FB0A
:10233000F0F0410001F4F87101EB031100F0070027
:102340000DE09B0000F014F8090132316420B1FB6C
:10235000F0F000F0F00101EB031100F00F00401865
:10236000906010BD00000000F369FFFF00380140DD
:10237000B0FBF3F06423B0FBF3F301FB13017047F0
:1023800080B54048404901604FF4165200F00EF805
:1023900000B116E001BD80B53C483D4901604FF4F5
:1023A000E13200F003F800B10BE001BD00230C2185
:1023B00042608360C360036141618361C361FFF771
:1023C00077BCBDE8014000F06FBC10B586B0044694
:1023D00014220021684600F069FC20682A4A2D4931
:1023E00090421ED1486840F480404860486800F43C
:1023F0008040059005980A6842F001020A600222B6
:10240000096801F0010105914FF4C0610598224867
:1024100000F02CF800220021252000F06BFC252084
:1024200020E01B4A90421FD1886840F480208860D9
:10243000886800F48020059005980A6842F002023E
:102440000A600222096801F0020105914FF440611F
:102450000598124800F00AF800220021272000F019
:1024600049FC272000F063FC06B010BD00910192EA
:10247000002102910322072104910392694600F092
:1024800081BC00009401002000380140DC010020E4
:10249000004800401C380240000002400004024096
:1024A00001480068704700BF0000002010B590F898
:1024B0002120022A00F1380106D004230B600021FC
:1024C00080F82010012010BD00F034F81468640872
:1024D0006400146001220B7A496803F01C039A40DF
:1024E0004A60002100F02DF880F82010002010BD77
:1024F00038B590F821200024022A00F1340103D0DD
:1025000004204860012413E000F014F815686D08F9
:102510006D00156001220B7B8D6803F01C039A404F
:102520006A6000F00EF880F82040096801B1884721
:10253000204632BD0268136823F00E031360026860
:102540007047012280F8212070477047704770471C
:1025500010B51A4C1848012204F10C01FFF736FCA3
:102560002146BDE8104001221548FFF72FBC38B5C1
:102570000446134821680268104D91420ED16968E3
:102580002A892B788B542989491C8BB2132B28BF9D
:102590000021298101222946FFF718FC06482168FD
:1025A0000268914206D105F10C01BDE838400122D4
:1025B000FFF70CBC31BD0000DC010020E80000206A
:1025C000940100202DE9FC47040040D0DFF80066AC
:1025D000B068B56800F00C082078C10705F48035B4
:1025E0000ED5B8F1080F05D0B8F10C0F08BFB5F53E
:1025F000803F47D13068810302D56068002826D02B
:102600002078DFF8D875810714D5B8F1040F04D00D
:10261000B8F10C0F08BF002D6BD13068810702D5CF
:10262000E06801281ED17068216920F4F85040EA62
:10263000012070602078C10640F1B280B8F1000F2F
:1026400040F097803068810503D5A069002800F02C
:102650008481206A716801F46041814266D200F091
:102660007CFA002840F079817168206A21F4604189
:10267000014371607168E06921F07F4141EA0061C6
:1026800071605EE06068012804D1306840F48030F9
:10269000306013E008B9306809E00528306806D1D9
:1026A00040F480203060316841F4803105E020F44E
:1026B00080303060316821F480213160606860B121
:1026C000FFF7EEFE07463068810399D4FFF7E8FE76
:1026D000C01B6528F7D3032042E1FFF7E1FE074660
:1026E000306881038CD5FFF7DBFEC01B6528F7D36C
:1026F000F1E7E06868B101213960FFF7D1FE0546D6
:10270000306881078FD4FFF7CBFE401B0228F7D932
:10271000E1E73860FFF7C4FE05463168880789D5D0
:10272000FFF7BEFE401B0228F7D9D4E7716821F4F9
:102730006041084300F016F9206A00F00EFA002804
:1027400090D1216AB268490BC2F303120120491CDF
:102750008840DFF88C14DFF87C34895CC003C84003
:102760001860DFF87404006800F0F0FB010017D077
:10277000F6E0A06948B301213962FFF791FE0546F2
:102780003068810505D4FFF78BFE401B0228F7D97E
:10279000A1E77068216A20F46040084300F0E2F885
:1027A000207801072BD56069DFF83814D0B10122F9
:1027B0000A60FFF775FE0546706B81071FD4FFF7AF
:1027C0006FFE401B0228F7D985E73862FFF768FEE5
:1027D000054630688105E3D5FFF762FE401B0228FD
:1027E000F7D978E70860FFF75BFE0546706B810755
:1027F00005D5FFF755FE401B0228F7D96BE7207877
:10280000410761D5706A0025C10009D4706A40F0A3
:10281000805070620125706A00F08050009000982E
:10282000DFF8C493D9F80000C10513D4D9F800002B
:1028300040F48070C9F80000FFF732FE8246D9F8F4
:102840000000C10506D4FFF72BFEA0EB0A006528A7
:10285000F5D340E7A068012808D008B9706B09E0FB
:102860000528706B06D140F480607063706B40F493
:10287000807005E020F480707063706B20F48060DD
:10288000706341F28939A06860B1FFF709FE8246A2
:10289000706B810513D4FFF703FEA0EB0A004845D7
:1028A000F6D318E7FFF7FCFD8246706B810506D56D
:1028B000FFF7F6FDA0EB0A004845F6D30BE71DB184
:1028C000706A20F080507062606A002847D0B8F1CA
:1028D0000C0F30D0022822D100F04DF805463068A8
:1028E000810105D5FFF7DCFD401B0228F7D9F2E690
:1028F000B068A16AE26A20F47D000843216B1043AE
:102900000843B060012000F037F8044630688101C8
:1029100025D4FFF7C5FD001B0228F7D9DBE600F040
:102920002AF804463068810119D5FFF7B9FD001B6C
:102930000228F7D9CFE601280FD0B068A26A00F4C8
:102940008031914202BF00F47011E26A914202BFED
:1029500000F44000216B884201D0012000E00020FB
:10296000BDE8F68770607068E16920F07F4040EA5A
:1029700001607060704700203866FFF791BD2DE957
:10298000F843040089466FD0DFF86062306800F0D9
:102990000100484502D200F08EF865D12078DFF8BA
:1029A0003052810705D5AA68A06822F0F0020243E0
:1029B000AA602178C8074FD56068022802D129682B
:1029C0008A0308E0032802D129688A0103E001286C
:1029D000296802D18A0702D446E08A0544D5A9684D
:1029E000890840EA8100A86041F28938FFF758FD64
:1029F0000746606802280BD1A86800F00C00082880
:102A00002AD0FFF74DFDC01B4045F5D3032050E011
:102A100003280AD1A86800F00C000C281CD0FFF78E
:102A20003FFDC01B4045F5D3F0E701280AD1A86857
:102A300000F00C0004280FD0FFF732FDC01B40450A
:102A4000F5D3E3E7A86810F00C0F05D0FFF728FDD9
:102A5000C01B4045F6D3D9E7306800F0010081453E
:102A600004D200F028F801D0012022E020784107AC
:102A700005D5AA68E06822F4E0620243AA602178E2
:102A8000080706D5A968206921F4605141EAC00110
:102A9000A96000F021F8AA6851494E4BC2F3031215
:102AA000895CC8401860BDE8F2434B48006800F0FC
:102AB0004DBABDE8F283B9F1010F03D1306840F09F
:102AC000040030603168490849EA410131603068EA
:102AD00000F001004845704730B54648416801F0B4
:102AE0000C02042A04D0082A04D00C2A04D018E0CE
:102AF000414830BD414830BD414AC1F38343D45CB5
:102B00004068C1F38152521C0023C50347BF3B48B4
:102B1000A0FB0401384DA5FB0401BDE83040FEF7E1
:102B20007FBF0068400B00F007000121401C01FA44
:102B300000F0C00330BD27482D4A006813683149B2
:102B4000C3F3022206E02348294A006813682D498E
:102B5000C3F3C222895CC840704778B5244B23492F
:102B60001C68002214F0F00F22D1DD691E4CEE002B
:102B700003D5246804F4C0540FE0DD6945F08055A6
:102B8000DD61DD6905F080550095009D2468DD69F3
:102B900025F0805504F4C054DD61B4F5C05F08BF72
:102BA000B0F5404F04D1086840F0040001220860ED
:102BB0000B685B0842EA43030B60086800F0010001
:102BC000904201D0012072BD002072BD00000000C3
:102BD000003802400C0000200400002000004742A2
:102BE000F43600088006474200700040003C024076
:102BF00008380240043802400024F40000366E0118
:102C0000E83600085437000880B500F0C1F900F03C
:102C100011F800F0CDF9FFF7B3FBFFF7BCFBFFF7AE
:102C200097FC00F0C4FA4FF47A7000F01BFC00F03F
:102C3000CBFBFCE780B592B03422002105A800F060
:102C400035F814220021684600F030F81548016874
:102C5000102221F4C05141F4006101600992022068
:102C600000220F921092059001210E904FF48002E5
:102C70000891119205A8FFF7A5FC08B172B6FEE70E
:102C80000F200321009001910022029203920492EE
:102C900001216846FFF773FE08B172B6FEE713B074
:102CA00000BD00000070004072B6FEE710B504469B
:102CB00010460A460146204600F0E8FB204610BDBB
:102CC0000901020002D4294881547047284B02F0C0
:102CD0000F021A4402F8041C7047264B19684FF67D
:102CE000FF020002114000F4E0600843224908435B
:102CF0001860704770B51F4B1C68C4F30223012491
:102D0000C3F10705052D2EBF0F2504FA05F56D1E2D
:102D10001E1D072E34BF0023DB1E2940994004FAF4
:102D200003F3BDE870405B1E1A401143C8E7010081
:102D300007D4012200F01F01104B8A40400943F8DC
:102D40002020704710B5401EB0F1807F01D30120D4
:102D500010BD0B4C60600F214FF0FF30FFF7B0FF4C
:102D60000021A16007202060002010BD00E400E0E9
:102D700018ED00E00CED00E00000FA0500E100E0D5
:102D800010E000E02DE9F84F0027684A684B4FF04B
:102D90000F0805460E4634E0664CA54214BF0524D4
:102DA00004248C40644944EA0E0441F82C40C14399
:102DB000946801EA040C7468E40248BF40EA0C0C11
:102DC000C2F808C0D46801EA040C7468A40248BFC1
:102DD00040EA0C0CC2F80CC0546801EA040C746898
:102DE000A40348BF40EA0C0CC2F804C0146801EA0E
:102DF000040C7168C90348BF40EA0C0CC2F800C05B
:102E00007F1C316831FA07F000F089800124BC4052
:102E100014EA0100F4D04FEA470C032101FA0CF147
:102E20006FEA010E716801F00309B9F1010F1CBFCF
:102E300001F00301022912D1A968D6F80C900EEA1C
:102E4000010109FA0CF949EA0101A960696821EA5E
:102E500004047168C1F30011B9400C436C60B900FF
:102E6000347904F00304032C21D0EC68D6F80890E0
:102E70000EEA040409FA0CF949EA0404EC60347916
:102E800004F00304022C12D1FC0805EB840401F0C9
:102E90001C09D4F820A008FA09FB2AEA0B0AD6F884
:102EA00010B00BFA09F949EA0A09C4F820902C6815
:102EB0000EEA040E347904F0030404FA0CF444EA34
:102EC0000E042C60746814F4403F99D01C6844F0E0
:102ED00001041C604FEA970C1C6804F00104009484
:102EE00001F00C01009C144C54F82C4008FA01FE2F
:102EF00024EA0E0E114CA54208BF00240ED0104C3F
:102F0000A54208BF012409D00E4CA54208BF0224E7
:102F100004D00D4CA5427FF43FAF032441E7BDE848
:102F2000F18F02B90904816170470000000401407B
:102F3000203802400010024008000140000002401A
:102F40000004024000080240000C024070B50E4E22
:102F50000446B0680025A0B14FF47A710B4AB1FB6A
:102F6000F0F11068B0FBF1F0FFF7ECFE48B9102C5F
:102F700007D2002221464FF0FF30FFF7BBFE7460FE
:102F800000E00125284670BD000000200C00002054
:102F9000032010B5FFF7A1FE0F20FFF7D7FF002495
:102FA000002814BF012400F07BFA204610BD000069
:102FB00038B586B01422002101A8FFF777FE1D481E
:102FC0001D4D01681D4C41F002010160026802F0D4
:102FD000020200920099026842F004020260036853
:102FE00003F0040300930099026842F001020260BA
:102FF0000022006800F0010000904FF4007100987A
:103000002846FFF78EFF00224FF480712046FFF71D
:1030100088FF4FF4007100F013F82846FFF7B2FE66
:103020004FF4807100F00CF82046FFF7ABFE07B0BC
:1030300030BD00001C380240000802400000024081
:10304000019101220292022103910022049201A91E
:103050007047000010B5DFF8B8430221204600F0A9
:1030600041FA0121204600F03DFAFFF719FA6061AC
:10307000012010BD38B5044600F0A0F8DFF89053E9
:103080000221284600F02EFA2146284600F032FAA6
:10309000012032BD18B50FF2C431DFF87803D1E951
:1030A000002385B00178CDE9012303AC15290194F3
:1030B00002DB0121017025E0042400940223032295
:1030C00001A800F039FADFF85043012200F01DF8A2
:1030D0000A2000F0C7F9BDF808200199DFF83C0389
:1030E0004FF47A73FEF721FE052000F0BBF90022B1
:1030F00000F00BF8C64C0321204600F0F3F9FFF76F
:10310000CFF96063012006B010BD4FF480712046F6
:10311000FFF707BFF8B5C24CA1882068BD4D421823
:10312000921E5378167846EA0326891E00F0ECF9C1
:103130006FF063020146AA81EA81A0882B7898B1DA
:10314000B14202BF21684E78032E04BF0F78BB4204
:103150000DD1CE780F7947EA0627AF814E7A897A6A
:1031600041EA0621E98102E00026AE81EE8105EB0D
:103170004303B5F90C60DE819642B5F90E10D9868D
:1031800008BF914207D100213228298103DA214664
:10319000281D00F0EFF9204600F007F92878401CC0
:1031A000287002219A4800F09DF90120F2BD00220A
:1031B0004FF400719B48FFF7B4BE0000FEB5954C7C
:1031C0009BA5206EB4F91610B4F91230B4F9102092
:1031D000954E0191401C20662946B4F918000290D2
:1031E00089A7B4F9140000F0CCF800F0C6F800F09C
:1031F000CDF84FF47A73012284A13046FEF795FD95
:10320000B4F92200B4F92010B4F91C30B4F91A2032
:1032100000F0AFF8B4F91E0000F0B3F800F0ADF81C
:1032200000F0B4F800F0BAF8B4F92C00B4F92A10A0
:10323000B4F92630B4F9242000F09BF8B4F9280042
:1032400000F09FF800F099F800F0A0F800F0A6F860
:10325000B4F93600B4F93410B4F93030B4F92E2092
:1032600000F087F8B4F9320000F08BF800F085F830
:1032700000F08CF800F092F800F090F8B4F94000FB
:10328000B4F93E10B4F93A30B4F9382000F071F8CE
:10329000B4F93C0000F075F800F06FF800F076F833
:1032A00000F07CF8B4F94A00B4F94810B4F944309D
:1032B000B4F9422000F05DF8B4F9460000F061F87E
:1032C00000F05BF800F062F800F068F8B4F9540020
:1032D000B4F95210B4F94E30B4F94C2000F049F86A
:1032E000B4F9500000F04DF800F047F800F04EF847
:1032F00000F054F8B4F95E00B4F95C10B4F9583039
:10330000B4F9562000F035F8B4F95A0000F039F855
:1033100000F033F800F03AF800F040F800F03EF822
:10332000208990B14FF47A735FF00C0247A13046C8
:10333000FEF7FBFC228961684FF47A733046FEF792
:10334000F4FC00F02BF80020208104F16400226ED0
:10335000364900F031F900F010F800F017F839465E
:10336000304603B0BDE8F0404FF47A730222FEF716
:10337000DCBC029001912946704704F16400FDF71E
:1033800001BF009004F1640000F016B982B24FF45E
:103390007A7304F164013046FEF7C7BC4FF47A73C8
:1033A000022239463046FEF7C0BC10B5002104E0C9
:1033B0000368CCB200221A55491C8388CAB29A42CB
:1033C000F6D30021818010BD70B50024002510487F
:1033D00000EB05167278012A11D17068012430B112
:1033E000FFF75EF87168B268401A904207D3002078
:1033F0007070FFF755F87060E8B2F16888476D1C8F
:10340000042DE4DB204670BD0D0A00000D00000015
:103410001000002050000020000002409401002015
:10342000EC00002000080240DC01002030360008DB
:103430007C202564207C202564207C202564207C41
:10344000202564207C202564207C00004572726F5A
:10345000725F526563763A200000000000000000B1
:103460000000000038B50446FFF71AF814F1010F08
:10347000054602D0044988680419FFF711F8401B7B
:10348000A042FAD331BD00BF000000204018491C03
:103490001CBFB1F1010100F8012DF9D17047000006
:1034A0000F4881B0416841F000414160416801F03E
:1034B000004100910099026842F001020260036835
:1034C00003F0010300930099426842F08052426089
:1034D000406800F080500090009801B0704700BF35
:1034E0002038024000EB01100121002241704260AF
:1034F0000120704710B500EB011401206070FEF749
:10350000CFFF6060012010BD30B503464FF6FF705D
:1035100000240DE01A5D504008224508C00752BF44
:10352000284685F4204080F00100521EF5D1641C2D
:103530008C42EFDB80B230BD38B5FFE7044625682A
:103540000498297021684A701A0A2568AA70020A2C
:103550002168CB70062123681A712568687120687C
:10356000FFF7D2FF21688871000A2268D071082015
:10357000A08031BD30B500220FE004F812300B6896
:103580009C5C056804F00F0405EB42030A2CACBFF9
:1035900037343034521C5C7092B28B889A4208DA0D
:1035A0000B689B5C04681B090A2BB4BF30333733AC
:1035B000E3E75B00838030BD0CB430B583B00A46CE
:1035C00006A90291044600250194009502AB01A9C9
:1035D000084878441E30FCF7A5FD019A15700028B4
:1035E0004EBF04460198041B204603B030BC5DF872
:1035F0000CFB00BF47DBFFFF30B501688468421851
:10360000416802EB5103C90703D54C4401E0491C52
:1036100005D19A420AD012F9011B12F8015B002968
:1036200004F8015BF3D4491EF7D5F2E70C3030BD46
:103630002D2D2D2D2D2D2D2D2D2D2D2D2D2D2D2DBA
:103640002D2D2D2D2D2D2D25642D2D2D2D2D2D2D7B
:103650002D2D2D2D2D2D2D2D2D2D2D2D2D2D2D2D9A
:103660002D000000FEE7FEE7FEE7FEE7FEE77047FD
:103670007047704700F00AB80248FEF7CDBB024819
:10368000FEF7CABB94010020DC01002002490A6851
:10369000886882180A6070470000002010B507494A
:1036A00079441831064C7C44163404E00A68081D3D
:1036B000114488470146A142F8D110BD080000001E
:1036C0002400000027DAFFFF0C0100003001002079
:1036D0000000000025FFFFFF54010000F60000007D
:1036E0000000002070470000030406080C1018209A
:1036F0003000000000000000000000000102030490
:103700000607080900F00DF8002801D0FFF7C6FFF2
:10371000AFF300800020AFF30080FFF775FA00F0F0
:1037200002F80120704700F001B800000746384653
:10373000FEF7B4FAFBE70000014880470148004764
:10374000E536000849370008AFF30080AFF300808A
:10375000FFF7D8FF0000000001020304686A6C74E0
:103760007A4C0000FFF7FEBFFFF7FEBFFFF7FEBF7A
:10377000FFF7FEBFFFF7FEBFFFF7FEBFFFF7FEBF7D
:10378000FFF7FEBFFFF7FEBFFFF7FEBFFFF7FEBF6D
:10379000FFF7FEBFFFF7FEBFFFF7FEBFFFF7FEBF5D
:1037A000FFF7FEBFFFF7FEBFFFF7FEBFFFF7FEBF4D
:1037B000FFF7FEBFFFF7FEBFFFF7FEBFFFF7FEBF3D
:1037C000FFF7FEBFFFF7FEBFFFF7FEBFFFF7FEBF2D
:1037D000FFF7FEBFFFF7FEBFFFF7FEBFFFF7FEBF1D
:1037E000FFF7FEBFFFF7FEBFFFF7FEBFFFF7FEBF0D
:1037F000FFF7FEBFFFF7FEBFFFF7FEBFFFF7FEBFFD
:10380000FFF7FEBFFFF7FEBFFFF7FEBFFFF7FEBFEC
:10381000FFF7FEBFFFF7FEBFFFF7FEBFFFF7FEBFDC
:10382000FFF7FEBFFFF7FEBFFFF7FEBFFC00001073
:10383000FD000001FD000568FF1F000001F6000407
:103840005530000801F90008102700007530000805
:1038500002F500049530000803F90008900100000B
:103860001531000801FD0003300100208100EB004C
:103870000324020020F8001B36130008361300084A
:1038800036130008361300083613000836130008F4
:1038900036130008F8FF0B9612000836130008369E
:0738A000130008FAFFFE000F
:04000005080037496F
:00000001FF
