:020000040800F2
:10000000A00500201D37000881360008833600084F
:1000100000000000000000000000000000000000E0
:10002000000000000000000000000000853600080D
:100030000000000000000000873600088936000834
:10004000130C0008A714000807150008D31A0008AD
:10005000D71A0008DB1A00083F3000087730000884
:10006000000000006334000837360008FB36000843
:100070000737000841370008000000004337000838
:100080000000000000000000000000000000000070
:1000900045370008000000004737000849370008CE
:1000A000000000004B3700080000000000000000C6
:1000B000913600084D3700080000000000000000E5
:1000C00038B5040014D0250078356868002803D1BD
:1000D0002870200000F0D4FD2420686020680168AA
:1000E000012291430160200000F022FA012801D191
:1000F000012032BD606A002802D0200000F002FB1F
:1001000020684168084A0A404260206881682A22C3
:1001100091438160FFE72068016801220A43026081
:10012000200000F05DFB32BDFFB7FFFFF1B584B0EA
:100130001F0006465036F06A202861D10C000FD00F
:1001400068460280002A0BD004988068802149010B
:10015000884207D104980069002803D1E00701D53F
:1001600001204EE0002575632120F06200F0C4FDFF
:1001700001006846008830806846008870803A0038
:100180000498806880235B01984209D10498006933
:10019000002805D12500049F0192029104001AE075
:1001A0002000F8E721788162641C11E0019800903A
:1001B000029B00228021380000F070FB00281BD138
:1001C0003868002CEED12988C905C90D8162AD1CA3
:1001D0007088401E708070880028E7D13800029B2C
:1001E000019900910022402100F058FB002803D122
:1001F0002020F062002004E02020F062032000E0D4
:10020000022005B0F0BD70B58023C358202B28D143
:1002100000290BD0130009D0836880246401A34215
:1002200006D10369002B03D1CB0701D5012070BD96
:100230000023036603680C4CA3420FD05B681B02CB
:100240000CD5EFF31083012484F31088046825682B
:100250008026F6042E43266083F3108800F066FBA8
:1002600070BD022070BD000000480040F8B50400D9
:100270002068C16902688368A84F0F40250058357F
:100280000026002F0AD18F0600D5970600D480E003
:100290002969002901D020008847F1BDDF0702D479
:1002A0009F4F174075D0CF0706D5D70504D5012736
:1002B0000762E86A0743EF62880708D5D80706D5C2
:1002C000022027683862E86A04270743EF6248077C
:1002D00008D5D80706D5042027683862E86A0227BF
:1002E0000743EF62080709D5900601D4D80705D562
:1002F000082023681862EB6A1843E862080509D5EC
:10030000500107D58020000123681862E86A202385
:100310000343EB62E86A002831D0880606D59006D0
:1003200004D52969002901D020008847E86A4027C0
:1003300021688968394002D12821014024D0200059
:1003400000F062FB20688068074019D0EFF310804E
:10035000012181F3108821688A6840239A438A60CA
:1003600080F31088E86900280AD06E498163E86943
:1003700000F0EDFC002802D0E869816B8847F1BDF0
:10038000200000F00BFDF1BD200000F007FDEE6243
:10039000F1BDAF68012F00D093E0CF0600D5D7069E
:1003A00000D48EE01021016220202168896849066E
:1003B0004BD5E9690A68526892B2002AE8D05823FE
:1003C000E35A9A42E4DA6A8009680968014034D144
:1003D000EFF31081012282F3108822681368524FD4
:1003E0001F40176081F31088EFF31081012282F320
:1003F0001088226893680127BB43936081F31088BB
:10040000EFF31081012282F310882268936840275D
:10041000BB43936081F31088A862AE60EFF3108055
:10042000012181F3108821680A6810239A430A6029
:1004300080F31088E86900F065FC0220E86058202D
:10044000205A6988411A89B237E05821615A6A886E
:10045000891A6A461180698800295DD06946098831
:10046000002959D0EFF31081012282F3108822680D
:1004700013682E4F1F40176081F31088EFF310812F
:10048000012282F31088226893680127BB4393609E
:1004900081F31088A862AE602E61EFF31080012115
:1004A00081F3108821680A6810239A430A6080F358
:1004B00010880220E86068460188200000F06FFC88
:1004C000F1BDCF0208D55B0206D580214903016248
:1004D000200000F065FCF1BD080607D5100605D523
:1004E0006969002918D020008847F1BD480613D556
:1004F000500611D5EFF31080012181F31088216897
:100500000A6840239A430A6080F3108820206862BA
:100510006E61200000F045FCF1BD00000F080000F6
:10052000200100047D0A0008FFFEFFFFDFFEFFFF41
:10053000F1B582B00024056828687049014002982E
:100540008068084302990969014302984069084399
:100550000299C969014329606868694901400298A4
:10056000C0680843686002988069984FBD4203D014
:1005700001000298006A0843A968954A0A4010439E
:10058000A860944B10269448854228D1D86C0C2141
:10059000014036D0042938D0082934D00C2936D06F
:1005A000102000908D488108F202BD424AD1009D82
:1005B000002D06D0022D2CD0042D2FD0082D30D0A8
:1005C00093E000F014FF00284ED002994A685100D1
:1005D0008918884202D31103814224D285E0BD42AA
:1005E000DED1D86CC021090101400AD0180D81422A
:1005F0000BD04000814206D0C0200001814206D0CD
:10060000CEE70020CDE70220CBE70420C9E7082091
:10061000C7E71A681640D8D00800D6E700F0AEFE4B
:10062000D1E71000D1E7070E06025008002180191B
:100630007941002300F002FF95494118954A914203
:1006400053D244E0944D029FFF699742009F26D108
:10065000002F06D0022F18D0042F1BD0082F1CD03B
:1006600043E000F0C4FE002840D0029949684000F1
:100670004A08801800F02CFF01001039A94234D23A
:1006800005400007400F284321E01A681640ECD0CF
:100690000800EAE700F072FEE5E71000E5E7002F4A
:1006A00006D0022F17D0042F1AD0082F1BD01CE021
:1006B00000F09DFE002819D0029949684A08801868
:1006C00000F006FF01001039A9420ED280B2029953
:1006D0000968C8600AE01A681640EDD00800EBE728
:1006E00000F04CFEE6E71000E6E701240020029946
:1006F00088660299C8662000FEBD0000F369FFEF1E
:10070000FFCFFFFF2421415CC90706D501684A6875
:10071000B14B1340826A1A434A602421415C890725
:1007200006D501684A68AD4B1340C26A1A434A6055
:100730002421415C490706D501684A68A84B13404B
:10074000026B1A434A602421415C090706D50168FF
:100750004A68A44B1340426B1A434A602421415C0F
:10076000C90606D501688A689F4B1340826B1A43FD
:100770008A602421415C890606D501688A689B4B02
:100780001340C26B1A438A602421415C490611D58B
:1007900001684A68994B1340026C1A434A60026C24
:1007A00080235B039A4205D14A68954B1340426C03
:1007B0001A434A602421415C090606D501684A684B
:1007C000904B1340806C18434860704700480040CD
:1007D000FFF4FFFF00100240004400400024F4003A
:1007E000FEB50600370078370024FC6000F084FA7C
:1007F0000190202530680068000717D59A480090BE
:10080000019B00222904300000F048F800280DD098
:10081000EFF31080012181F3108831680A6880238A
:100820009A430A6080F310887D6026E03068006893
:10083000400725D58C480090019B002269043000B8
:1008400000F02CF800281BD0EFF31080012181F379
:10085000108831680A68854B13400B6080F310885C
:10086000EFF31080012181F3108831688A68012339
:100870009A438A6080F31088BD603C700320FEBDFF
:100880007D60BD60346674663C700020FEBD000073
:1008900000FDFFFF00FD0F00F0FF0000FEB5802708
:1008A0003F0108240025060001916846027002936A
:1008B0003068C069019901400198814201D101204D
:1008C00000E000206946097888422DD1089800216F
:1008D000C9438842ECD000F00FFA0299401A0899F7
:1008E000814201D3002901D10320FEBD3068016897
:1008F0004907DDD5C16921400CD1C1693940D7D044
:100900000762300000F080F8300078302021C160AC
:100910000570E9E70462300000F076F830007830C6
:10092000C46005700120FEBD0020FEBD70B54165AC
:10093000010058310A804A8000230B618668FF2439
:1009400080225201964204D10569002D11D1484CF4
:100950000FE07F25002E03D10669002E06D108E0A6
:100960001404A64207D10469002C01D18D8003E054
:100970003F248C8000E08B80CB6222238B62EFF3DC
:100980001083012484F310880468A56801262E438F
:10099000A66083F31088836893420DD10269002A10
:1009A0000AD1344A0A61EFF31081012282F31088E0
:1009B0000068026820231BE02F4A0A6101690029B0
:1009C000F1D0EFF31081012282F3108800680268F1
:1009D00090235B00EFE70000FFFFFDFFFFFFFEFF3E
:1009E000FFFFFBFFFF7FFFFFFFEFFFFFFFDFFFFFCB
:1009F0001343036081F31088002070BDFFFFEFFFF9
:100A0000FFFF9FFFFFFFF7FF10B5EFF310810122FB
:100A100082F3108802681368144C1C40146081F340
:100A20001088EFF31081012282F310880268936826
:100A30000124A343936081F31088016E01290BD137
:100A4000EFF31081012282F31088026813681024EA
:100A5000A343136081F3108820218022815000215C
:100A60000166816610BD0000FFFFFF01DFFEFFFF92
:100A7000FF010000350B0008910A000880B5806A6C
:100A80000100523100220A810A8000F087F901BD7D
:100A900070B50100583102688B6A222B44D1526A2A
:100AA0008B881340426D1370426D521C42654A8818
:100AB000521E4A804A88002A3AD1EFF3108201235D
:100AC00083F3108803681C68434D25401D6082F342
:100AD0001088EFF31082012383F3108803689C6869
:100AE0000125AC439C6082F3108820228A62002298
:100AF0000A61CA600368394CA3420ED05B681B02CE
:100B00000BD5EFF31083012484F310880468256863
:100B1000334E2E40266083F310888B68012B00D162
:100B200060E000F02DFE70BD9069082101439161E5
:100B300070BD000070B50100583102688B6A222B2D
:100B400044D1526A8B881340426D1380426D921CCF
:100B500042654A88521E4A804A88002A3AD1EFF3F9
:100B60001082012383F3108803681C681A4D254006
:100B70001D6082F31088EFF31082012383F3108845
:100B800003689C680125AC439C6082F31088202296
:100B90008A6200220A61CA600368104CA3420ED028
:100BA0005B681B020BD5EFF31083012484F31088DC
:100BB000046825680A4E2E40266083F310888B68EF
:100BC000012B00D10EE000F0DBFD70BD9069082123
:100BD0000143916170BD0000DFFEFFFF004800404F
:100BE000FFFFFFFB8A60EFF31081012282F3108880
:100BF000026813681024A343136081F3108801680E
:100C0000CB69234000D00C625821415A00F0C7F84C
:100C100070BDFEE73448016801220A430260416862
:100C2000802252050A434260704710B586B0040026
:100C30001422002101A800F0EFFD20682B49884212
:100C40001CD101202A4C2168014321602168014008
:100C500000910099C021C900019112210291002147
:100C6000039103210491059001A9A020C00500F083
:100C7000DDFDE068802189030143E16006B010BD1D
:100C800010B586B004001422002101A800F0C4FDB4
:100C900020681849884224D11548C16880229202F0
:100CA0000A43C260012102680A43026000680140F1
:100CB000009100980C2001900220029000200390E7
:100CC000032004900420059001A9A020C00500F095
:100CD000ADFD002200211C2000F097FE1C2000F03A
:100CE00098FE06B010BD00003410024000540040D1
:100CF0002C1002400044004001484068704700BF8B
:100D00009C00002030B50100243100222523C35C63
:100D1000022B04D00423C3630A70012030BD036892
:100D20001C680E25AC431C6003681C680125AC439D
:100D30001C6001234424045D1C2525400124AC4093
:100D4000056C6C60252403550A70002030BD70B519
:100D50000022002401212523C35C022B03D004229E
:100D6000C263012418E003681D680E26B5431D60A8
:100D700003681D688D431D604423C35C1C251D4012
:100D80000123AB40056C6B602523C15424214254E0
:100D9000816B002900D08847200070BD70477047E4
:100DA00070477047FEB5060060D0BB4CE0680C2170
:100DB00001400091E06880214902084001903078AC
:100DC000C0070ED54F000098082804D00C2872D117
:100DD000019888426FD12068074002D070680028CF
:100DE00044D03078800733D5F0682021084204D001
:100DF00022681143216020218843BB4F0921C94348
:100E0000009A042A05D00C2A01D1019A002A00D0A8
:100E10008CE02268520701D5002827D0626817406D
:100E2000326912023A43626022681140084320602E
:100E300000F0A4FAAD49E2681206120F895CC840BE
:100E4000BC490860BC48006800F008FE010031D1D0
:100E5000A70D3078C00600D4B4E00098002800D078
:100E600091E02068800503D5B069002800D1A4E195
:100E70006068B2490140306A0843606060680002FF
:100E8000000AF1690906014361600120316A490BDA
:100E9000491C8840C0039549E2681206120F895C1C
:100EA000C840A4490860A448006800F0D7FD0100CC
:100EB00000D187E0FEBD7068884201D1206809E05A
:100EC000A021C9028842206806D17900014321602F
:100ED0002068790801430AE0BA490140216020688E
:100EE00079080840029002982068B74901402160C3
:100EF000706800280DD0FFF7FFFE0500206838401D
:100F000000D06EE7FFF7F8FE401B6528F6D30320FC
:100F1000FEBDFFF7F1FE05002068384000D160E714
:100F2000FFF7EAFE401B6528F6D3F0E704220192A2
:100F3000002817D02268114008432060FFF7DCFE2C
:100F4000050020680199014005D1FFF7D5FE401B3F
:100F50000228F6D9DBE760680740306900023843B1
:100F6000606075E72068012188432060FFF7C4FEB8
:100F70000500206801990140F3D0FFF7BDFE401B3A
:100F80000228F6D9C3E7B0690028206830D038437A
:100F90002060FFF7B1FE05002068800505D4FFF74B
:100FA000ABFE401B0228F7D9B1E7606863490140F6
:100FB000306A0843606060680002000AF16909064F
:100FC000014361603078000730D570690028206DDA
:100FD0001DD0012101432165FFF78EFE0500206D24
:100FE000800723D4FFF788FE401B0228F7D98EE73D
:100FF000764901402160FFF77FFE050020688005EB
:10100000E0D5FFF779FE401B0228F7D97FE70121E1
:1010100088432065FFF770FE0500206D800705D529
:10102000FFF76AFE401B0228F7D970E730784007C7
:1010300065D5002001903805A16B014004D1A16B5A
:101040000843A0630120019061480068384011D135
:101050005F48006838435E490860FFF74DFE0500B1
:101060005B480068384005D1FFF746FE401B652805
:10107000F6D34CE7B168B9420AD0564800290DD0E2
:10108000A022D200914209D1206D210D014321659A
:10109000206D0743276508E000100240216D4B4A90
:1010A0000A402265216D08402065670DB068002860
:1010B0000CD0FFF721FE0500206D384018D1FFF756
:1010C0001BFE401BA9498842F6D320E7FFF714FE18
:1010D0000500206D38400BD0FFF70EFE401BA349E2
:1010E0008842F6D313E700BFFFE0FFFFB4360008E5
:1010F0000198002803D0A06B9D490140A163706A4C
:1011000000285CD000990C2942D08027BF0499495F
:10111000022820682ED101402160FFF7EDFD050077
:10112000206838400CD0FFF7E7FD401B0228F7D9B4
:10113000EDE600BFA8000020A4000020FF1FFFFF75
:10114000E0688D490140B06A0843F16A0143306BA1
:101150000843E0602068790801432160FFF7CCFD77
:101160000500206838402AD1FFF7C6FD401B022841
:10117000F7D9CCE601402160FFF7BEFD05002068ED
:1011800038401CD0FFF7B8FD401B0228F7D9BEE657
:10119000012812D0E068802149020140B26A9142E0
:1011A0000BD1F02189030140F26A914205D1C0219F
:1011B00009040140306B814201D00120FEBD0020B6
:1011C000FEBD00BFFFFFFEFFFFFFFBFFFFFEFFFFB7
:1011D00000700040FFFBFFFFF1B582B000285CD03B
:1011E0000091624F86480068C107C90F009881428C
:1011F00017D2834C20680121884300990143216064
:10120000FFF77AFD009D06002068C107C90FA942BB
:1012100006D0FFF771FD801BB842F5D30320FEBD59
:1012200000957A4C02980078800706D5E068F02196
:101230008843029989680143E1603E46029800783C
:10124000C0074DD502984068022819D1216889034A
:1012500023D5E168032291430843E060FFF74CFD8A
:101260000700029840680C25022818D1E068284041
:10127000082835D0FFF740FDC01BB042F6D3CDE7BC
:10128000032802D12168890103E00128216802D1E5
:101290004907DED401E08905DBD40120FEBD032827
:1012A00009D1E06828400C281AD0FFF725FDC01BA3
:1012B000B042F6D3B2E7012809D1E06828400428FB
:1012C0000ED0FFF719FDC01BB042F6D3A6E7E068C9
:1012D000284005D0FFF710FDC01BB0429ED2F6E7B4
:1012E000009847490968CA07D20F904215D2444D69
:1012F000286801218843009901432960FFF7FCFC1D
:1013000007002868C107C90F0098814205D0FFF780
:10131000F3FCC01BB042F4D380E70298007840078A
:1013200006D5E0683A4901400298C0680843E06089
:1013300002980078000707D5E06836490140029816
:101340000069C0000843E06000F018F83249E26824
:101350001206120F895CC8403049086030480068A6
:1013600000F07CFB010000D10020FEBD89130000CD
:10137000FFFFFFEFFFFFFFFEFFFF02FF50B5234A15
:10138000D16810230C200840042804D0082809D074
:101390000C2809D023E01068034001D0224850BD3A
:1013A000224850BD224850BD22488C02240F005DC7
:1013B00009028C0F641C0021D668F60301D51C4A73
:1013C00003E01268134002D0174A002300E0174AD6
:1013D00000F066FB2200002300F030F850BD50689A
:1013E00001210004400F401C8140C80350BD0B4840
:1013F000006811490B4A1268520503E00000000022
:1014000000200240520F895CC84070470010024023
:10141000FFF8FFFFFFC7FFFFB4360008A800002059
:10142000A40000200C10024000093D000024F4003C
:1014300000127A00C436000838370008124224D05F
:10144000994228D970B500251B4202D00C0000211A
:1014500009E00024012649186441944200D3A41AEB
:101460007641F8D33100012601E0764109D2001817
:1014700064416D41A41A9D41F7D2A4185D41B6198B
:10148000F5D3300022002B0070BD1B42D8D108B527
:1014900000F020FB08BD01D19042D3D202000B0026
:1014A000002100207047FEE7CA0F00D04942031018
:1014B0005A400DD004B500D3404200F009F8009A1C
:1014C000D20701D34942124200D5404204BD000078
:1014D000094214D088420FD30122030C01D1000429
:1014E0001204002300185B418B4200D35B1A524167
:1014F000F8D319001000704701000020704708B5AC
:1015000000F0EAFA08BDFEE786B000F0E7FA00F066
:10151000F2F8142101A800F0F5FA0126A8480168A4
:10152000314301600068304000900098A024E40539
:1015300000221021200000F038FA102001900296BD
:10154000022003900025049501A9200000F06EF907
:101550009C4C9D48E0609D4820616561A661E56105
:1015600025626562A562E56220000C3000F0D2FAC7
:10157000002801D000F04EF9002120000C3000F0CE
:10158000CBFD002801D000F045F9002120000C30EF
:1015900000F0DFFD002801D000F03CF98C488D49B7
:1015A0000160E121490241608560C56005610C214F
:1015B00041618561C56105624562FEF781FD0028D4
:1015C00001D000F027F984482066062060669C2040
:1015D0004000E066A0662000603000F0E3FD0028D7
:1015E00001D000F017F97D4D7D4801F02DFBA84298
:1015F00007D17C4801F028FB20707B4801F024FBD8
:1016000060677A4801F020FBA84207D1784801F0D2
:101610001BFBE080774801F017FB2081764D616F5E
:10162000280001F0CEFA0122291D2868FEF7EBFD03
:10163000724E03E02000603000F0DFFDFFF75CFB3E
:10164000216F401AFF21F63188421BD3221DA11CB5
:1016500020000C3001F0FAFA012801D16680A68042
:101660006088E18840186080A08821894018A080A7
:101670006078401CC1B2022900DD03206070FFF7D2
:101680003BFB20676078032821D1280001F04AFB4A
:1016900001281CD1200008300090A31D22007432C4
:1016A0002100280000F08AFE0420205E0090022025
:1016B000235E220074322100280000F0A9FD0128D9
:1016C00002D1FFF719FBA067280001F055FBFFF7D7
:1016D00013FBA16F401A4A498842ABD3FFF70CFBBA
:1016E000A06772B6BFF34F8F464847490860BFF303
:1016F0004F8F00BFFDE738B598B034210BA800F03C
:1017000001FA1421684600F0FDF9182105A800F03F
:10171000F9F93E4801683E4A0A40C10C1143016094
:101720000A240B9401200E9010210F91109002209A
:101730001490002515951695400517900BA8FFF7F6
:1017400031FB002801D000F065F80F200090032045
:10175000019002950395049501216846FFF73CFD31
:10176000002801D072B6FEE705940795099505A8F3
:1017700001F010FB002801D072B6FEE719B030BDB1
:1017800038B5134C00682168884217D11A4D0D48AE
:10179000407803280DD1280001F0C4FA002808D1B0
:1017A0006879192805DA2979281881716879401C27
:1017B00068710122291D2000FEF725FD31BD0000C2
:1017C0002C100240000000200054004082665000AF
:1017D000F40000200044004000300040A5A5A5A56D
:1017E000007800080478000808780008007C0008E9
:1017F000047C0008087C00087C000020FF7F0000BB
:1018000081EE36000400FA050CED00E000700040A7
:10181000FFE7FFFF72B6FEE710B5040008001100F5
:101820000200200000F070F9200010BDF0B585B076
:1018300000220F23039331E0062303E05E4B98421E
:10184000FAD10523B3402B4323605C4B9D68019B79
:10185000DC4325404B68DB0202D52B00019D1D4374
:10186000564B9D60DD6825404E68B60202D52E00BD
:10187000019D3543DD605D6825404E68B60302D5A5
:101880002E00019D35435D601D682C404D68ED03C1
:1018900002D52500019C2C431C60521C0B681C00C7
:1018A000D44000D17FE00124944023400193019B68
:1018B000002BF2D0530003259D40EE4302964D6865
:1018C000AE07B60F012E03D0AD07AD0F022D0ED11E
:1018D0008568029E2E40CD689D40354385604568F1
:1018E000A5434C68E606F60F96402E4346609400EA
:1018F0006D466C7003244D682540032D25D0C568C6
:10190000029E2E408D689D403543C5604D68254040
:10191000022D1AD1D508AD0045192E6A04966E46DF
:1019200077781C263E406F463E70049EB446039F67
:101930006E463678B7406646BE43B4460F696E467B
:101940003678B740664637432F620568029E2E40C0
:101950004D682C409C40344304604B68C024A40272
:101960001C409AD00123164C24681C43144D2C6053
:10197000144C9508AD00641925686E4677780C26DE
:101980003E40039FB740BD43A027FF05B84201D1A9
:10199000002357E70C4FB842FBD00C4B984200D0C5
:1019A0004CE702234EE705B0F0BD002A01D081616B
:1019B0007047816270470000001C00500004014025
:1019C000341002400800014000040050000800509C
:1019D00010B5C20018231340FF249C40E24389073E
:1019E000090E9940030004D418489B089B00C018B6
:1019F00006E0174B0007000F083880088000181811
:101A000003681A401143016010BD80B5FFF7E0FF85
:101A100001BD010005D40121C006C00E81400D4862
:101A20000160704710B5401E80214904884201D3EF
:101A3000012010BD084C606003210020C043FFF767
:101A4000C7FF0020A0600721216010BD00E400E076
:101A50001CED00E000E100E010E000E038B505001A
:101A60000D4CFA2080002178FFF732FD01000B4871
:101A70000068FFF72DFDFFF7D5FF00280AD1042DE0
:101A800008D2002229000020C043FFF7BEFFA56056
:101A9000002032BD012032BD9C000020A8000020A3
:101AA00030B4434351435D18010C0C00130C5C43EC
:101AB0002D1980B2434392B251430024C9186441A6
:101AC00024040B04090C09195043C018694130BCA7
:101AD0007047FEE77047FEE77047FEE710B5002449
:101AE0000748016840220A4302600320FFF7B6FF5F
:101AF000002801D0012401E0FFF78CF8200010BD80
:101B000000200240002200BF094202D0491E425478
:101B1000FCD1704770B5040001D1012070BD2500D3
:101B2000403500266878002803D12E702000FFF78A
:101B30007CF82420687020680168012291430160CC
:101B40006068B2490140206801612168B0488A6834
:101B500002408A60E1680129A16801D1C24301E025
:101B6000842212020A4321688A60E168022903D1B3
:101B7000802109012268516021684A68A54B1343FE
:101B80004B602168CA681040C860206961690143E0
:101B9000A069000208432168C860E069216A014326
:101BA000206801602068016801220A4302606E60BB
:101BB000202068702663AE70002070BDFEB5040062
:101BC0000F0016001D0040304078202800D07FE034
:101BD0004020205C01287BD0012040216054FFF789
:101BE0008BF80190009019230122D103200000F00E
:101BF00029F9002869D121202100403148701020A6
:101C00002100403188700020210040314860666228
:101C1000658560638048089E618DFF290BD9FF218F
:101C20002185009080235B04FF223900200000F012
:101C30005CFA019D11E0628D2285009080239B0457
:101C4000D2B2F2E7FF2020850020009080235B04C1
:101C5000FF223900200000F048FA608D00282DD0C6
:101C60002A003100200000F022F900282DD1606AFE
:101C7000007821688862606A401C60626748618DF4
:101C800009186185218D08182085618D0029E4D00F
:101C90000004E2D10095330000228021200000F0F2
:101CA000D1F8002811D1608DFF28CBD8628D228514
:101CB0000020009080239B04D2B2CAE731002A00A2
:101CC000200000F021F9002801D00120FEBD8DE0A8
:101CD0000220FEBDFEB504000F0016001D004030BE
:101CE0004078202800D07FE04020205C01287BD075
:101CF000012040216054FEF7FFFF0190009019235E
:101D00000122D103200000F09DF8002869D1222093
:101D1000210040314870102021004031887000209F
:101D20002100403148606662658560633C48089EDA
:101D3000618DFF290BD9FF212185009080235B0451
:101D4000FF223900200000F0D0F9019D11E0628DE2
:101D50002285009080239B04D2B2F2E7FF202085E9
:101D60000020009080235B04FF223900200000F057
:101D7000BCF9608D00282DD02A003100200000F031
:101D8000ECF800282DD12068406A616A0870606A0A
:101D9000401C60622149208D40182085628D5118B9
:101DA0006185618D0029E4D00004E2D10095330003
:101DB00000228021200000F045F8002811D1608D1C
:101DC000FF28CBD8628D22850020009080239B04C1
:101DD000D2B2CAE731002A00200000F095F80028AE
:101DE00001D00120FEBD01E00220FEBD20202168BF
:101DF000C86121684A680B4B13404B602100403199
:101E00004870002088700870FEBD0000FFFFFFF0E2
:101E1000FF7FFFFF0080000200200080FFFF000026
:101E20000024008000E800FE00688169890701D570
:101E300000218162012182690A4002D18269114335
:101E400081617047F8B50092002405000E001F0064
:101E5000286880693040B04201D1012000E00020B4
:101E60000099884221D10020C0438742F0D0FEF77C
:101E700043FF0699401A874201D3002FE8D1286812
:101E800080693040B04201D1012000E0002000997B
:101E90008842DDD128004030202142680A43426058
:101EA0004170847004700120F2BD0020F2BDF8B5CD
:101EB000022604000D00170020688069304021D1FF
:101EC0003A002900200000F091F8002818D10020E5
:101ED000C0438542F0D0FEF70FFFC01B854201D3FF
:101EE000002DE9D1206880693040E5D120004030E4
:101EF000202142680A4342604170002181700170D4
:101F00000120F2BD0020F2BDF8B5202504000E002E
:101F100017002068806928401DD13A003100200058
:101F200000F064F8002801D00120F2BDFEF7E4FEC5
:101F3000C01B864201D3002EEBD120688069284067
:101F4000E7D12000403041682943416045700021BD
:101F500081700170E8E70020F2BDF8B52026050089
:101F60000F00009204242868806920403CD1009A28
:101F70003900280000F03AF8002833D12868816938
:101F800031401BD08169214002D0298D00292BD1FD
:101F9000290040311023002287691F4002D0C3610D
:101FA0004C6000E04A602868C66128684368584C65
:101FB0001C4044604E708A700A7013E0FEF79CFE6D
:101FC0000099401A874201D3002FCBD1286880693D
:101FD0000440C7D128004030416831434160467019
:101FE000002101700120F2BD0020F2BDFEB5060007
:101FF000002430688369002517001022134042D066
:10200000C261009133E0210035D100980021C9431D
:1020100088422CD0FEF770FEC01B0099814201D38C
:10202000002924D1306841683200403292788369B7
:102030001B040BD5490409D4202A07D0416880220B
:10204000D2010A434260FEF757FE070001962026A0
:10205000019800688069304008D1FEF74DFEC01B32
:102060001A28F5D32800202505430124019E306855
:1020700081698906C7D5002C01D12021C1612800C2
:102080000425054301243268906901210B0218429E
:1020900002D00D43D36101248A02104205D02B00E7
:1020A00008251D433368DA6101244A02104006D036
:1020B0002800022505433068C261012401E02000A8
:1020C00011D03000FFF7B0FE30684168104A0A4076
:1020D000426031004031486805434D60202048701F
:1020E0000020887008702000FEBDF0B5059C0068D7
:1020F0004568660D074F3743BD438905890D1204B6
:102100000A4313431C436100490829434160F0BD61
:1021100000E800FEFF63FF0370B502004032537811
:10212000202B14D14023C35C012B10D0012313704A
:1021300024245470046825689D432560046825683C
:10214000164E2E4026600468256829431CE00220B4
:1021500070BD70B5020040325378202B12D140235D
:10216000C35C012B0ED00123137024245470046827
:1021700025689D43256004682568094E2E400902A4
:10218000314301E0022070BD2160006801680B430B
:102190000360202050700020107070BDFFEFFFFF23
:1021A000FFF0FFFF70B5050001D1012070BD286868
:1021B000144901601449016069684160A96881603F
:1021C000FEF79AFD072406002868C16821400AD05E
:1021D000FEF792FD801B2B28F6D32868C0682040AC
:1021E000F2D0032070BDE96802698A4201D0016122
:1021F00001E006490160002070BD044900680160EB
:1022000000207047CCCC000055550000AAAA000061
:10221000F6B591B004000E001F0000206946087357
:10222000A0793178884213D119210AA8FFF76AFCF6
:102230000AA804906179601840790502201D405C6D
:102240000543891EA01D00F061FE0100E079A9424E
:1022500000D0A9E001216A461173217A0D02617A4A
:102260000D4306A9002200230CC10CC101008039D6
:102270006A461170032837D138004D49884230D062
:10228000189A8A422DD0082D23DAA17A0902E37A1E
:1022900019434F00390422D00821491B4906090E71
:1022A000BBB299421BD30292019012980068009031
:1022B0002A00317806A800F0D3FB06A80190380464
:1022C000400C00902B000322317804A800F038FE67
:1022D00053E003238322317804A800F09CFE0323FB
:1022E00045E00423832244E006283FD1314F2800F3
:1022F00014D1A07A0002E17A084300B2411EFF29FE
:10230000EDD23070129802683178380000F06FFC1E
:1023100006A8019001200090002321E0012DDED1CC
:10232000A07A0002E17A084300B20828D7D22249F5
:1023300080000818816912980160200000F041FCBB
:102340000122211D2068FDF75EFF12980268317896
:10235000380000F04CFC06A80190012000900123F9
:102360000622317804A800F019FE06E00223684630
:102370000278317804A800F04EFEA025ED05012278
:1023800010212800FFF711FB0A2000F059FEFA2364
:102390009B0004A8828804992068FDF7C7FE0022EC
:1023A00010212800FFF701FB6846007B13B0F0BD49
:1023B000FF7F000000780008AC000020F7B50400A3
:1023C0000D001F00297800F076FAB3490022D243AD
:1023D00090424CD0B14E019701281AD11A20287092
:1023E00096208001029A10603831200000F011FB25
:1023F00002980168200000F0E4FB0122211D206802
:10240000FDF701FF029802682978300000F0EFFB29
:1024100034E10122D24390420CD108980021405E61
:1024200000900198435E029802682978200000F02D
:1024300039F9F7BD0022022852D10020A71D637987
:10244000984205DA0300401CC0B2FB5C202BF6D199
:10245000A31D1B5C303B0A2B05D2401CC0B2521C92
:1024600063799842F4D1401EC0B2D3B2002B00D1A0
:102470000DE1042B00DB0AE163795B1E984214D165
:10248000D3B2012B03D1A21D105C30381DE0022B0A
:1024900009D1A21D125C201840790A234343D018A9
:1024A0008422920010E0D2B2032A00D0EFE0A21DF5
:1024B000125C23185B790A275F43D2192018007930
:1024C00064234343D018764A801A82B2002A67D028
:1024D000FF2A67DC28703831200000F09AFA39E0D2
:1024E00003283CD100206779C3B2BB4206D2030067
:1024F000401CA71DDBB2FB5C202BF4D1A31DC7B28F
:10250000DB5D303B082B05D2401C521C6779C3B2FF
:10251000BB42F3D1401ED2B2012A47D1C0B2627988
:10252000521E904242D1A21D105C30380006800D30
:1025300008188069029A10603831200000F069FAAA
:1025400002980168200000F03CFB0122211D206858
:10255000FDF759FE029802682978300094E00428BB
:1025600003D00323DB4398424FD100250023A71D4E
:102570006679B54205DA2E006D1CEDB2BE5D202EE7
:10258000F6D1A61D765D303E0A2E05D26D1CEDB249
:102590005B1C6679B542F4D16D1EEDB2DEB2002E41
:1025A00075D0042E73DA6679761EB5426FD1DEB22D
:1025B000012E03D1A21D525D303A1BE0022E08D13C
:1025C000A21D525D63195B790A256B43D218AF4B8C
:1025D0000FE0DBB2032B0DD1A21D525D63195B79B5
:1025E0000A267343D21863191B7964256B43D218EA
:1025F000A74BD218042801D1019834E00323DB4310
:10260000984237D15042019A33E00423DB43052836
:1026100001D098423FD100256779EEB2BE4206D282
:102620002E006D1CA71DF6B2BE5D202EF4D1A61D96
:10263000EFB2F65D303E0A2E05D26D1C521C677952
:10264000EEB2BE42F3D16D1ED2B2012A1FD1EDB25D
:102650006279521E95421AD1A21D525D303AD2B211
:10266000052802D10898028004E0984202D1504225
:10267000089A10803831200000F0CBF9089800212A
:10268000425E0198415E834800F0B1FAF7BD4031E7
:10269000200000F0BEF9F7BDAC0000200078000873
:1026A000D0140000F9B587B001206C46E070A0702E
:1026B00060706B461870089800B2002803D543423A
:1026C0009BB2049301E080B204900E9800B20028FF
:1026D00003D543429BB2039301E080B2039005927D
:1026E0000D0000A8C01C00F0D9F8059900A8801CB6
:1026F00000F0D4F8049900A8401C00F0CFF803992A
:10270000684600F0CBF8644C492020704620607089
:102710003D20A0706846C078C01C0290471E12E0A1
:10272000EDB228000A21FEF7BFFE3031F8B2215485
:1027300028000A21FEF7B8FE05006846C078401E52
:102740006946C8707F1E6846C0780028E8D12C20F2
:102750000299C9B260540298694689784018401CB1
:10276000C0B20290401E6946087168460779059D0F
:1027700011E028000A21FEF7ABFE3031F8B22154F7
:1027800028000A21FEF7A4FE050068468078401E56
:10279000694688707F1E684680780028E9D12C2021
:1027A00002996054089800B2002801D52D2001E05C
:1027B00004DD2B20611C029A885402E068460079EF
:1027C00002900298694649784618B61CF6B2701E07
:1027D0006946087168460779049D11E028000A21BE
:1027E000FEF762FE3031F8B2215428000A21FEF7CC
:1027F0005BFE85B268464078401E694648707F1E81
:10280000684640780028E9D12C20A0550E9800B2E7
:10281000002801D52D2001E003DD2B20611C885507
:1028200001E068460679684600783618B61CF6B2AC
:10283000771E039D11E028000A21FEF735FE303196
:10284000F8B2215428000A21FEF72EFE85B2684610
:102850000078401E694608707F1E68460078002890
:10286000E9D1152E05DA20221520811BA019FFF7CA
:102870004BF9079D2100280000F0CBF821003831EA
:10288000280000F0C6F809B0F0BD0000F0FDFFFF21
:1028900030EBFFFF007C0008AC00002010B5040006
:1028A000080002E02178491C21700A21FEF710FE81
:1028B0000028F7D110BD70B50400A079412828D1B7
:1028C000E079542825D1207A2B2822D1607A522809
:1028D00010D1A27A452A0DD1E27A532A0AD1227B5D
:1028E000452A07D1627B542A04D16079082810D187
:1028F000012070BD0D0049280ED1A17A44290BD1C9
:10290000E07A3D2805D162790621A01D00F028F962
:10291000A8427CD1022070BD49280ED1A17A462957
:102920000BD1E17A3D2908D162790521A01D00F083
:1029300017F9A8426BD1012053E042280ED1A17AA9
:1029400052290BD1E07A3D2861D162790621A01D80
:1029500000F006F9A8425AD1032070BD08210626CE
:10296000432828D1A27A4C2A25D1E27A542A22D1AE
:10297000207B2D280BD10826607B3D2807D162796A
:10298000A01D00F0EDF8A84201D1032029E0A01D10
:10299000805D2B283BD1761CF6B2A01D805D3D28C2
:1029A00035D16279711CC9B2A01D00F0D9F8A842D6
:1029B0002DD1042070BD432829D1A07A4C2826D1DE
:1029C000E07A482823D1207B2D280CD10826607B73
:1029D0003D2808D16279A01D00F0C2F8A84202D1BA
:1029E0000420C04370BDA01D805D2B280FD1761C34
:1029F000F6B2A01D805D3D2809D16279711CC9B273
:102A0000A01D00F0ADF8A84201D1052070BD002046
:102A100070BDF2B50500A027FF0501221021380086
:102A2000FEF7C3FF83A6FA24A4002300022231008C
:102A30002868FDF77BFB009800F016FB230082B2AC
:102A400000992868FDF772FB2300022231002868F4
:102A5000FDF76CFB002210213800FEF7A6FFF1BD48
:102A6000F8B503001000002400220600012500280C
:102A700006D16846008800281BD01C7059700222BD
:102A8000012E16DC694609888A4214D20021069E6E
:102A900069480F06BF0DC0198069B04203D0491CB8
:102AA000C8B20728F4DD9C54521CD0B21954521CF1
:102AB00001E0022E0DDCD0B26946098888420AD2B4
:102AC00007980112D6B29955521CD1B25854521CD3
:102AD00001E0032E0BDCD0B269460988884208D297
:102AE000D1B25C54521CD1B25D54521C01E0042E90
:102AF0000CDCD0B269460988884209D2D1B25C5454
:102B0000521C0220D1B25854521C01E0052E0CDC9C
:102B1000D0B269460988884209D20898D6B29C5535
:102B2000521CD1B25854521C01E0062E0BDCD0B21C
:102B300069460988884208D2D1B25C54521CD0B28E
:102B40001D54521C01E0072E09DCD0B269460988E9
:102B5000884204D2D1B25C54521CD2B29C54F1BD12
:102B6000F8B591421CD20023002400930123334D79
:102B70008EB2865D303E0A2E06D3491C8FB2BA4211
:102B8000F6D28FB2BA4208D38EB2865D303E0A2E9C
:102B900002D2491C641CF4E74919A2B2092A01DBDC
:102BA0000020F2BD0200002008E08EB2965D303EAB
:102BB0005E438019491964190A2673432604F4D127
:102BC000F2BD80B500681E4A02604160002181604C
:102BD000C16001610C2242618161C1610162416297
:102BE000FDF76EFA002801D072B6FEE701BD7FB591
:102BF00004000E00150000F058FA00200190029425
:102C0000082103910090694601A800F019FB0D4AC4
:102C10002100022000F030FA3200211D022000F0D5
:102C20002BFA2A0008342100022000F025FA00F0D7
:102C300061FA7FBD0D0A0000AC000020FFFF00001C
:102C400000440040A5A5A5A500687047F7B582B06F
:102C50000700002500240422002101A8FEF7DCFD66
:102C60002A4E64200090002301AA88213800FEF734
:102C7000A5FF00283CD1222000F0E2F9FA208000D4
:102C80000090042301AA88213800FFF723F80400EC
:102C900039D101A881780F02C1780F430178090268
:102CA000407801438804800C00F01EFB184900F0B6
:102CB0002BFB184900F07DFB00F0D4FB0499088041
:102CC000B80800F011FB124900F01EFB124900F099
:102CD00070FB124900F0E3FB0E4900F06AFB00F0C4
:102CE000C1FB03990880307800280CD035700AE0C9
:102CF0003078022802DC401C307004E00848039958
:102D0000088004990880200005B0F0BD9C010020D7
:102D100000FC7F460000C84200002543000020C29E
:102D2000FF7F0000F8B5040000200025184E6179EF
:102D300000291ED001277088002806D1FDF7DCFF8E
:102D4000706060793080778014E0FDF7D5FF61799D
:102D500032887368C01A0B2803D38A4203D1012535
:102D600008E08A4206D0FDF7C7FF706060793080C6
:102D700000E070802800F2BD002141710171002245
:102D8000D3B2C3189971521CD3B2192BF8DB704718
:102D900094010020FEB5070000200190514C3878C6
:102DA000800679D580204005A16B014004D1A16B3C
:102DB0000843A06301200190A50D4B4800682840FE
:102DC00013D1494800900068284300990860FDF736
:102DD00093FF060000980068284006D1FDF78CFF9D
:102DE000801B6528F6D30320FEBD21687868C022C9
:102DF00092030A40C021890301408A420BD0C021BE
:102E000089020140C0229202914204D121688903C3
:102E100001D50120FEBDC026B602216D314020D073
:102E2000304081421DD0387880062ED5216D2F4844
:102E30000840216DEA020A432265216D2C4A0A40AE
:102E40002265206505400CD0FDF756FF0500206D7A
:102E5000800506D4FDF750FF401B26498842F6D373
:102E6000C1E73878800610D5786831000140B1425A
:102E700006D12168204A0A403101014011432160F6
:102E8000206D79680E40064326650198002803D01E
:102E9000A06B1A490140A1633878800705D5E06C22
:102EA0000C218843B9680143E1643878400705D5AF
:102EB000E06C13490140F8680843E0643878000783
:102EC00005D5E06C0F49014038690843E064387863
:102ED000000605D5E06C0C49014078690843E064C0
:102EE0000020FEBD0010024000700040FFFFFCFF0C
:102EF000FFFFF7FF89130000FFFFCFFFFFFFFFEF8A
:102F0000FFF3FFFFFFCFFFFFFFFFF3FF30B502002E
:102F1000094800230CE0200007E0D45C604008254D
:102F20004408C007F7D5054860406D1EF8D15B1C0A
:102F30008B42F2DB80B230BDFFFF000001A0000039
:102F4000F8B51400069A079B0025066831700168E1
:102F50004C7051000468A1700321040004E09F5DDF
:102F60008EB28755491C6D1C2068AEB25700BE4218
:102F7000F5DB6A46118069460988FFF7C7FF2268BA
:102F80006B461B88D05469460988491C000A226890
:102F90008BB2D054491CA1800120F2BDF8B50400C9
:102FA0001D00069800232668317021684A70290A9E
:102FB0002668B1702168CD700425062A02D0102A37
:102FC00010D018E00799012801D00020F2BD9AB274
:102FD0004600B2420FDA8A5C2668AFB2F2556D1C29
:102FE0005B1CF4E7010A22681171226850714000ED
:102FF000216888710725AEB231002068FFF786FF8F
:10300000226890556D1C000A2168AAB288546D1C74
:10301000A5800120F2BD10B5040020680170206871
:1030200042702068837003212068FFF76FFF2268D9
:10303000D070000A216808710520A08010BDFEE74D
:1030400038B50500FDF758FE04000020C043854256
:1030500002D0044800782D18FDF74EFE001BA84250
:10306000FAD331BD9C000020431C0178401C09426A
:10307000FBD1C01A7047FEE7F2B517003E4C207C2A
:10308000012801D10220F2BD012020743B4D28000F
:1030900000F03CF80026010005D100986661076049
:1030A000280000F033F82674F2BD0121344802688C
:1030B0000A400BD0EFF3108272B65B4B83605B4B20
:1030C000836082F31088026811400FD102220168E8
:1030D00011400DD0EFF3108172B6554BC360554BC4
:1030E000C36081F310880068024001D0012070475E
:1030F000002070472248016802220A4302600168EA
:103100000122FFE70A4302600020704770B5050006
:10311000FDF7F2FD0600494C2068C0070CD50020E1
:10312000C0438542F8D0002D04D0FDF7E5FD801B9B
:103130008542F1D2032070BD02202168014000D0F9
:1031400020602068C00511D4206880050ED4206856
:1031500040050BD42068000508D42068800405D4FD
:103160002068800302D42068C00303D500F00AF869
:10317000012070BD002070BD7C01002050C3000004
:103180000420024030B500222B4880235B002B49ED
:103190000C681C4004D042690224144344611A00A4
:1031A0004B0D0C681C4006D0446901252543456140
:1031B00014001A0022430B0D0C681C4006D0446911
:1031C00008252543456114001A002243CB0C0C68E6
:1031D0001C4006D0446904252543456114001A00AB
:1031E00022439B000C681C4006D0446910252543EF
:1031F000456114001A0022430B689B0306D5202367
:1032000044691C43446114002022224380235B0252
:103210000C681C4006D044694025254345611000D8
:103220001A0002430A6030BDEFCDAB8905040302EA
:10323000BFAE9D8C161514137C010020182002408F
:10324000FEB507000E00194C207C012801D1022098
:10325000FEBD0120207416480090FFF757FF0100C3
:1032600020D10021C94331607968124D01960E00CA
:1032700000E08036B968C9017A6889188E4211D297
:10328000300000F01BF80098FFF740FF2968082283
:10329000914329602968084A0A402A600100E8D061
:1032A00001990E6000212174FEBD00007C01002008
:1032B00050C3000004200240FFFDFFFF10B50021B5
:1032C000074A5161074A1368540D1C431460136880
:1032D00008241C4314607F229043016010BD00004D
:1032E0007C010020042002409D2102000AD002D46B
:1032F000491E9218FCD5C905100A1206524100D386
:10330000012A48417047000030B405004D400122B9
:10331000D20715404B180418240E28D01B0E2FD0AE
:10332000FF2C34D0FF2B37D0E41A000209021043DF
:10333000114343084808D10D1B1A02D2641EDB1842
:103340001B18DB18834200D31B1A4941F9D37F3481
:1033500026DDFE2C08DAE4054808C9071943914127
:103360006041284330BC7047FF20C005F9E72800C2
:103370001B0E03D0FF2BF5D14902F3D0D043F1E768
:10338000FF2C01D14002F9D1FF20C005E9E740023E
:10339000F4D1FF2BF8D1F1E728004902E2D0EDE7A4
:1033A0000B0200202442DCD15B129B1CD9D9D8052A
:1033B000D7E730B405004D400122D20715404B1825
:1033C0000418240E2ED01B0E32D0FF2C34D0FF2B2D
:1033D0003AD0E4180002090210431143000A090A16
:1033E0009446C2B24A43000AC3B24B43000A484360
:1033F000110A5B181A43D2B2190A091801D44918E4
:10340000641E080A7F3C23DBFE2C08DAE40509066B
:103410001143634699416041284330BC7047FF2007
:10342000C005F9E728001B0EFF2BF6D1D043F4E7C7
:103430002800FF2CF1D1F9E74002F7D1FF2B01D191
:103440004902F3D1E005E7E7D8054902E4D0EDE70A
:1034500043020020641CDFD15B129B1CDCD9D80521
:10346000DAE7FEE70122D2070118090E7F3910D4EE
:1034700049421F310FD4001805D2C0011043C84083
:1034800000D5D0437047C0011043C84005D4404226
:103490007047002070470042F3D5100070470122AA
:1034A000D20703004B402ED4431A01D2C01AC918C8
:1034B00030B44B180418240E1B0E22D0FF2C20D041
:1034C000E31A182B1DDC09021143C40D641E00020F
:1034D000104394461925ED1A0A00AA40D940451810
:1034E00001D36D08A41CE405D209280A2D062A433D
:1034F0006546AA41604103181B0EFF2B01D3C00D86
:10350000C00530BC7047514006E05140CCE7012275
:10351000D20703004B40F8D4431A03D2C01AC9188B
:103520005040514030B44B18090211430418240E86
:103530001B0E40D0FF2C3AD025009D410BD31ED846
:10354000C50D4002401A0BD3ED050100400AC90524
:1035500091416841D5E7C50D40024918401AD0D0C5
:1035600001214008491C0018FCD58C4204D36D1A77
:10357000000AED054019C4E7E8051040C1E7182D21
:10358000BFDCAC1C0D00E140E5414D40012D49413F
:10359000C40D00021043451A01D46D199543641EF1
:1035A000E405280A2D069541604130BC7047FF2B89
:1035B000A7D1D843A5E72442A3D10020A1E770B446
:1035C0000123002413E00168001D194202D04D467A
:1035D0006D1E49190C60091D121F042AFAD20D0034
:1035E000960701D50C80AD1C1A4000D02C700268E3
:1035F000001D002AE7D170BC704730B50168411842
:10360000446862088A188368E40704D54C461B198D
:1036100001E0641C06D191420BD00C7864B2491CC5
:103620000D78491C1D705B1C002CF2D4641EF7D56C
:10363000F1E70C3030BDFEE710B507497944183189
:10364000064C7C44163404E0081D0A688918884733
:103650000100A142F8D110BD0800000024000000C4
:103660005FFFFFFFAC000000F4000020000000003E
:103670008BFFFFFFDA000000980000000000002030
:10368000FEE7FEE77047704780B500F009F801BD1E
:1036900080B50248FCF7EAFD01BD0000F4000020FF
:1036A0000248416802788918416070479C000020F8
:1036B0007047000000000000000000000102030449
:1036C00006070809030406080C1018203000000043
:1036D00000F00DF8002801D0FFF7AEFF00BF00BFDB
:1036E000002000BF00BFFDF70FFF00F002F801202F
:1036F000704780B500F002F801BDFEE70746384686
:1037000000F002F8FBE7FEE780B500BF00BF024A09
:1037100011001820ABBEFBE72600020001488047DD
:1037200001480047B13600082D37000800BF00BF30
:1037300000BF00BFFFF7CCFF000000000102030440
:10374000FEE7FEE7FEE7FEE7FEE7FEE7FEE7001A1C
:103750008D00018025FA0003F4000020E400000140
:10376000F9000004FB000020E7000DB00400006039
:10377000090000C01200008025FD00004BFD000084
:1037800096FD0000E1FD000FC20100535543434583
:0A3790005353004552524F52FD0002
:040000050800372D8B
:00000001FF
